:020000040800F2
:1000000080AF0120E5200008E5040008E7040008AF
:10001000E9040008EB040008ED04000800000000FB
:10002000000000000000000000000000A101000826
:10003000EF04000800000000F5010008151D00088D
:10004000FF200008FF200008FF200008FF20000814
:10005000FF200008FF200008FF200008FF20000804
:10006000FF200008FF200008FF200008FF200008F4
:10007000FF200008FF200008FF200008FF200008E4
:10008000FF200008FF200008FF200008FF200008D4
:10009000FF200008FF200008FF200008FF200008C4
:1000A000FF200008FF200008FF200008FF200008B4
:1000B000290B0008FF2000083F080008FF20000867
:1000C000FF200008FF200008FF200008FF20000894
:1000D000FF200008A92000084D200008FF2000088C
:1000E000FF200008FF200008FF200008FF20000874
:1000F000FF200008FF200008FF200008FF20000864
:10010000FF200008FF200008390B0008FF2000082E
:10011000FF200008FF200008F7080008170C00085F
:10012000FF200008FF200008FF200008FF20000833
:10013000FF200008FF200008FF200008FF20000823
:10014000FF200008FF200008FF200008FF20000813
:10015000FF200008FF200008FF200008FF20000803
:10016000FF200008FF200008FF200008FF200008F3
:10017000FF200008FF200008FF200008FF200008E3
:10018000FF200008FF200008DFF810D006F0DAFF9B
:10019000004800479D030008AFF3008080AF0120B6
:1001A0002A4B19680868B0E8F04F80F30988BFF35C
:1001B0006F8F4FF0000080F311887047000000003F
:1001C00006480068006880F3088862B661B6BFF32D
:1001D0004F8FBFF36F8F00DF00BF00BF08ED00E05F
:1001E000DFF80C00016841F470010160704700BF46
:1001F00088ED00E0EFF30980BFF36F8F134B1A68AF
:100200001EF0100F08BF20ED108A20E9F04F10609B
:1002100008B44FF0500080F31188BFF34F8FBFF345
:100220006F8F05F0E9F94FF0000080F3118808BCEA
:1002300019680868B0E8F04F1EF0100F08BFB0EC66
:10024000108A80F30988BFF36F8F7047EC0000209D
:10025000EFF30580704700006CA20121002001F03F
:1002600045FB6CA20121022001F040FB6DA201219F
:10027000042001F03BFB6DA20121042001F036FBBC
:10028000002000F03AFA00284DD001280AD00228B8
:1002900037D0032841D00428DED10C2167A007F015
:1002A0001DF8D9E701F031FA6BA20121002001F01D
:1002B0001DFB6DA20121022001F018FB6DA201219E
:1002C000042001F013FB6EA20121062001F00EFBB9
:1002D000002000F012FA0028E6D0012806D00228FB
:1002E00007D0032809D00428DED1B5E701F07DF955
:1002F000DAE75A2001F087F9D6E75A2001F093F99E
:10030000D2E700F0C3FF0028FBD05F4801F04EF8B1
:100310005E480168C94301609EE701F079F85A48D8
:1003200001F098F898E70A2005F092F894E7584C05
:100330004FF4FA7507E0012100E00021C4F88812AB
:10034000284605F085F8D4F888120029F5D1F2E79F
:100350001CB506F027FB4F480124CDE900400023DF
:1003600080224DA1AFF2390004F083FE49480023FA
:10037000001DCDE9004062024AA1AFF2231004F053
:1003800078FE4BA14D4801F041FE4248001F006835
:1003900004F0B8FEBDE81C4006F01EBB7CB5A820EA
:1003A00001F0C2FC4FF4A06001F0AEFE4FF4E13466
:1003B000204601F01BFD204601F0BCFD00F060F975
:1003C00000F07CFC002003F0D1FE012003F0CEFE03
:1003D000022003F0CBFE3AA1384801F017FE3D4D54
:1003E00001242C60FA2001F0D0FC0020286029486C
:1003F0000023001FCDE90040802237A1AFF2AF00FB
:1004000004F037FE05F046FA00207CBD312E44652D
:1004100062756700322EE8AEADE7BB83E6A8A1E5C2
:10042000BC8F0000332E6D61696E0000342EE6B57E
:100430008BE8AF95E58685E5AD980000746865208A
:1004400073697A65206F6620702D3E646174612047
:100450006973202564000000312EE6B58BE8AF9566
:10046000E6ADA5E995BF0000322EE5B7A6E8BDAC24
:1004700039300000332EE58FB3E8BDAC39300000D1
:10048000E8BF94E59B9E00008400002080824142EA
:1004900000804142040000206C6564305F74617329
:1004A0006B0000006D61696E5F7461736B0000002A
:1004B000205461736B204F4B0D0A00000010014067
:1004C00020486172647761726520696E6974204F9B
:1004D0004B0D0A00A082424273746172745F7461B2
:1004E000736B00007047FEE7FEE7FEE7FEE770472C
:1004F0000CB50022019200925849086840F48030FF
:1005000008604FF4A043086800F4003000900198A0
:10051000401C0190009810B901989842F3D10868E6
:10052000800302D50120009000E00092009801288D
:1005300031D14A484030026842F080520260484857
:10054000026842F440420260444808300268026097
:10055000026842F400420260026842F4A052026063
:10056000021F404B13600A6842F080720A600A68FA
:100570009201FCD53C4A40F205711160016821F0FE
:1005800003010160016841F0020101600168C1F3EB
:1005900081010229FAD10CBD10B53448016841F43B
:1005A000700101602D48016841F0010101602B4A92
:1005B00000210832116002682D4B1A400260031DB1
:1005C0002C4A1A60026822F48022026023480C3010
:1005D0000160FFF78DFF25494FF00060803908600A
:1005E00010BD70B51D4E0836306800F00C00224B6F
:1005F000224900280FD05D1004280ED008280ED004
:100600000B6030681D4AC0F30310121D105C0A68AD
:10061000C2400A6070BD0B60F3E70D60F1E70F4A5E
:10062000121D1068C0F38054106800F03F0034B110
:10063000B5FBF0F01368C3F38813584305E0B3FB30
:10064000F0F01368C3F3881358431268C2F30142F1
:10065000521C5200B0FBF2F00860D2E700380240B2
:100660000070004008544007003C024088ED00E064
:10067000FFFFF6FE103000240024F4000C000020E0
:100680007CB50121202002F084FA4FF4C06400946C
:1006900001208DF8040000208DF806008DF8070079
:1006A00003208DF80500054D6946284602F05EF8E6
:1006B0002146284602F0C2F87CBD0000001402402A
:1006C0001CB50121112002F064FA1C2000900020CA
:1006D0008DF8040003208DF8050001248DF80740F3
:1006E0006946354802F042F8009402208DF8070070
:1006F0006946324802F03AF81CBD2DE9F041012567
:100700002F4C002800D0257020782C4F2A4EA0B105
:100710001021304602F07EF8B0B10821304602F0D8
:1007200079F888B10421304602F074F860B10121F3
:10073000384602F06FF8012806D01021304602F04A
:1007400069F8012824D035E00A2001F01EFB0020C2
:1007500020701021304602F05DF880B1082130464B
:1007600002F058F870B10421304602F053F858B145
:100770000121384602F04EF8012807D01AE0012086
:10078000BDE8F0810220FBE70320F9E70420F7E74A
:100790000821304602F03EF801280BD104213046F2
:1007A00002F038F8012805D10121384602F032F86C
:1007B00000B925700020E3E700100240000002406D
:1007C00020000020FE48002101804180012188078F
:1007D00002F014BCFA48008870477FB504460D4605
:1007E0000121082002F0F9F90294ADF80450002428
:1007F000ADF80640ADF80C40F24D01A9284602F0D4
:100800007FFB01221146284602F04DFF01212846B8
:1008100002F0F4FB32208DF8000001208DF8010079
:100820008DF802408DF80300684601F072FC7FBD30
:10083000E34800228264C26453213120CDE770B5C1
:100840000121E14802F045FF012820D1DC48826CFB
:10085000C16C521C41F100018264C164DB4ADC4D71
:10086000DC4892ED000A012110EE104A0023AC4250
:1008700001DA017000E0037092ED010AD64C10EE2F
:10088000102AD648A24201DD017000E00370BDE8E5
:1008900070400121CB4802F028BF7FB504460D46C9
:1008A0000121102002F099F90294ADF804500020C3
:1008B000ADF80600ADF80C00C94C01A9204602F0C5
:1008C0001FFB01221146204602F0EDFE01212046C9
:1008D00002F094FBC34A01208105116036218DF896
:1008E00000108DF801008DF802008DF803006846B5
:1008F00001F00FFC7FBD10B5B94C0121204602F07C
:10090000E8FE18B10121204602F0EFFEAC49886AEA
:10091000401C8862C82808DDB3480268D2430260E0
:100920004268D24342600020886210BD7FB5044611
:100930000D460121202002F050F90294ADF8045038
:100940000024ADF80640ADF80C40A84D01A928469A
:1009500002F0D6FA01221146284602F0A4FE012137
:10096000284602F04BFB37208DF800008DF801403F
:1009700001208DF802008DF80300684601F0C9FBE4
:100980007FBD30B589B00121084602F002F901218E
:10099000084602F022F90320079002218DF820106A
:1009A0008DF8210001208DF822008DF82300904C55
:1009B00007A9204601F0DAFE01220021204601F0BD
:1009C0004DFF01221146204601F048FF04A802F025
:1009D000C7FA0024ADF810404FF6FF700590ADF84F
:1009E0001840ADF812404FF0804504A9284602F0A7
:1009F00087FA00231A460321284602F0FEFE01A8CA
:100A000002F0C7FDADF80C4001A9284602F094FDA4
:100A10000121284602F05AFE01221146284602F022
:100A200042FE0121284602F0E9FA09B030BDF0B5D6
:100A300089B00121032002F0ACF80121082002F066
:100A4000CCF84FF40040079002268DF82060032573
:100A50008DF8215001248DF822408DF82340644FF9
:100A600007A9384601F082FE082007908DF8206023
:100A70008DF821508DF822408DF823405D4C07A958
:100A8000204601F073FE02220F21384601F0E6FEF7
:100A900002220321204601F0E1FE04A802F060FAE0
:100AA0000024ADF810404FF6FF700590ADF81840E7
:100AB000ADF81240434D04A9284602F021FA002364
:100AC0001A460321284602F098FE01A802F061FDB3
:100AD000ADF80C4001A9284602F02EFD0121284660
:100AE00002F0F4FD01221146284602F0DCFD01214E
:100AF000284602F083FA09B0F0BD002230490228EE
:100B000004D0052809D04A64486C70474FF08040F3
:100B1000436A1BB24B644262F6E72A4824300368FA
:100B20001BB24B640260EFE74FF08040018A018AFC
:100B300021F00101018270472F480188018821F0CE
:100B4000010101807047B1EE061ADFED2C1AB7EEF5
:100B5000002A401A00EE100AB8EEC00A1848D0ED7C
:100B6000030A70EE800AC0ED030A21EE001A01EEBE
:100B7000A01AD0ED040A70EE600A02EE201A80ED91
:100B8000040ABDEEC10A10EE100A7047B1EE061A53
:100B9000DFED1A1AB7EE002A401A00EE100AB8EE7E
:100BA000C00A0748D0ED070A70EE800AC0ED070AB8
:100BB00021EE001A01EEA01AD0ED080A20E0000094
:100BC00028000020000C00400008004078000020B1
:100BD00000007A44810000200000FA4480000020D8
:100BE0000010004004E100E0808241420014004017
:100BF0000000024000040240100400406666263FE8
:100C000070EE600A02EE201A80ED080ABDEEC10AFD
:100C100010EE100A70472DE9F041254C01212046C5
:100C200002F057FD18B10121204602F05EFD0220BE
:100C3000FFF763FF1F4CE0630520FFF75EFF2064B2
:100C4000616BE06BFFF77FFFE0624FF47A767742EB
:100C5000B04201DDE66202E0B84200DAE762606BB2
:100C6000002500B9E562E06A00F06FFCA16B206C22
:100C7000FFF78CFF2063B04201DD266302E0B8423B
:100C800000DA2763A06B00B92563206B00F076FCC7
:100C9000606A401C6062C82807DD07480168C943D4
:100CA00001604168C94341606562BDE8F0810000B0
:100CB0000014004028000020888241422DE9F041C4
:100CC00098B00121782001F064FF4FF63370169040
:100CD00002208DF85C0003208DF85D0000248DF863
:100CE0005E4001208DF85F009A4D16A9284601F05C
:100CF0003DFD4FF683711691974E16A9304601F0CF
:100D000035FD4FF23F011691944F16A9384601F078
:100D10002DFD40F23F411691DFF8448216A940466E
:100D200001F024FD0C220021284601F097FD0C2241
:100D30000121284601F092FD0C220421284601F0F1
:100D40008DFD0C220521284601F088FD0C2208218A
:100D5000284601F083FD0C220921284601F07EFD82
:100D60000C220A21284601F079FD0C220B2128468D
:100D700001F074FD0C221146284601F06FFD0C2293
:100D80000D21284601F06AFD0C220E21284601F0B3
:100D900065FD0C220F21284601F060FD0C22002188
:100DA000304601F05BFD0C220121304601F056FD7A
:100DB0000C220721304601F051FD0C22082130465B
:100DC00001F04CFD0C220921304601F047FD0C22B8
:100DD0000A21304601F042FD0C220B21304601F081
:100DE0003DFD0C221146304601F038FD0C220D214C
:100DF000304601F033FD0C220E21304601F02EFD6D
:100E00000C220F21304601F029FD0C22002138462A
:100E100001F024FD0C220121384601F01FFD0C22B7
:100E20000221384601F01AFD0C220321384601F058
:100E300015FD0C220421384601F010FD0C2205217D
:100E4000384601F00BFD0C221146384601F006FD34
:100E50000C220D21384601F001FD0C220E213846EE
:100E600001F0FCFC0C220F21384601F0F7FC0C22AB
:100E70000021404601F0F2FC0C220121404601F025
:100E8000EDFC0C220221404601F0E8FC0C2203217B
:100E9000404601F0E3FC0C220421404601F0DEFC58
:100EA0000C220521404601F0D9FC0C220A214046C3
:100EB00001F0D4FC0094019409200290039404945E
:100EC00005940694042007900894099410200A9031
:100ED0000B940C940D940E940F94000210901194A6
:100EE000129413946846CDF850D0159007A801F0DD
:100EF00081F90121042001F0F7F918B0BDE8F08173
:100F000010B5002A08D04FF0D04310F8014B5C54C4
:100F1000491C521E002AF6D110BD002A08D04FF0FD
:100F2000D0435B5C00F8013B491C521E002AF6D1FD
:100F3000704703B50146012201A8FFF7E1FF0CBD90
:100F400008B5014601226846FFF7E7FF9DF800005B
:100F500008BD0000000C02400010024000140240D6
:100F600000180240006870474349884201D20020BF
:100F700070474249884201D2082070474049884260
:100F800001D2102070473F49884201D21820704793
:100F90003D49884201D2202070473C49884201D215
:100FA000282070473A49884201D230207047394999
:100FB000884201D2382070473749884201D2402008
:100FC00070473649884201D24820704734498842E8
:100FD00001D250207047582070472DE9F041044657
:100FE0000F4690460926B4F1006F34D3A00732D1E2
:100FF00002F05CFE002002F040FE254604EB88086B
:1010000028482C46854210D311E02846FFF7AAFF56
:10101000401C09D02846FFF7A7FF022102F087FEF7
:101020000646092E01D002E02D1D4545EDD3092EBF
:1010300008D009E02046396802F052FF092803D1A0
:10104000241D3F1D4445F5D3012002F016FEBDE8E6
:10105000F04102F037BEBDE8F08110B50446002330
:1010600006E02046FFF77EFF41F82300241D5B1CAD
:101070009342F6D310BD0000004000080080000835
:1010800000C0000800000108000002080000040879
:10109000000006080000080800000A0800000C080C
:1010A00000000E080000FF1F10B50446102006F0D7
:1010B000BDFE2060002CF9D021680020C86010BD62
:1010C00070B505460C46102006F0B0FE28600021E1
:1010D000C160102006F0AAFE0ECC80E80E00296840
:1010E000C968C1602968C86070BD70B505460968E7
:1010F00000E00146C8680028FBD1C86890E84C00B1
:1011000084E84C00C268CA6006F068FE07CC07C5D8
:1011100070BD014600200968C96801E0401CC9682B
:101120000029FBD1704770B504460D462068296838
:10113000884250D160686968884226DDA86820B17D
:10114000022806D0032808D00AE05A2000F06BFAE3
:1011500006E05A2000F057FA02E0B42000F053FAFB
:1011600000F043FAA06820B1022806D0032808D076
:1011700031E05A2000F047FA2DE05A2000F053FAEF
:1011800029E0B42000F04FFA25E0A868022803D037
:1011900030B1012808D00AE05A2000F044FA06E0F5
:1011A0005A2000F030FA02E0B42000F02CFA00F0EF
:1011B0001CFAA06820B1022806D0012808D00AE055
:1011C0005A2000F030FA06E05A2000F01CFA02E043
:1011D000B42000F028FA60686968884255D1206818
:1011E0002968884226DDA868012803D0032805D095
:1011F00040B10AE05A2000F016FA06E05A2000F04A
:1012000002FA02E0B42000F0FEF900F0EEF9A06866
:10121000012803D0032805D040B11EE05A2000F079
:10122000F2F91AE05A2000F0FEF916E0B42000F0BE
:10123000FAF912E0A868032804D0012806D0022891
:1012400008D00AE05A2000F0EEF906E05A2000F03B
:10125000DAF902E0B42000F0D6F900F0C6F9A0688F
:10126000012808D003280BD002280ED1BDE8704019
:10127000B42000F0D8B9BDE870405A2000F0D3B9CE
:10128000BDE870405A2000F0BEB970BD2DE9F05F96
:10129000ADF51D4D0DF510410120C1F8F40CC1F85C
:1012A000F80C801EC1F8FC0C8F907948FFF7FCFE0B
:1012B00049F6F44BEB4459467548FFF701FFDFF858
:1012C000D0A1AAF1040A0DF5104303F6F44003F689
:1012D000E84307C807C36E4927A8FFF706FF27A8FA
:1012E0000DF5104307C803F6F44307C3A3F1180133
:1012F0005846FFF718FF0DF51043D3F8F45CD3F808
:10130000F86CD3F8FC4C641C17E06148001D50F8E1
:10131000341001EB050800EBC4004068871908EBA6
:10132000C80000EB08112AA800EB011959F82700A2
:1013300010B99AF8010018B1641C042CC3DAE4E770
:101340000DF51040C0F8F45CC0F8F86CC0F8FC4C27
:1013500059464F48FFF7B4FE45463E464FF0FF3032
:1013600049F827000DF51041C1F8E85CC1F8EC6CB4
:10137000C1F8F04C49F6E84059466844FFF7D3FEFF
:101380009AF8000080B10DF51040C0F8F45CC0F888
:10139000F86CC0F8FC4C59463D48FFF791FE0DF53E
:1013A0001D4D0120BDE8F09F0024C6E72DE9FC415A
:1013B00007460020019000903868C568002440F27C
:1013C000031613E0002101EB410015F820008DF811
:1013D0000400491C0C29F6D304EB440006EB800002
:1013E00003220199FFF7F9FDED68641C3846FFF709
:1013F00090FEA042E6DC3846FFF78BFE00EB400093
:10140000009001226946FF20FFF7E7FDBDE8FC815F
:101410007FB500200390002601223146FF20FFF710
:101420001CFE1B48FFF740FE002440F203150DE0B0
:1014300005EB041004220399FFF70FFE03988DE8D3
:10144000070069461248FFF73BFE641CB4EB960F99
:10145000EED37FBD3EB505462868C4680BE06946FB
:101460002868FFF760FEE4682968D1E9000289680E
:10147000CDE901210090002CF1D13EBD08B500203E
:1014800000904FF47A726946FF20FFF7A6FD08BD71
:10149000840000202DE9F0418AB080460D460121EC
:1014A000082001F076FB4FF47040089002268DF87A
:1014B000246003208DF8250000248DF826400127A4
:1014C0008DF8277008A9604801F050F9ADF8145064
:1014D000ADF81640CDF81880ADF81C405B4C05A95E
:1014E000204601F00DFD6021ADF80010ADF802704E
:1014F000ADF80C606946204601F08CFD6946204637
:1015000001F0B8FD6946204601F0F4FD6946204629
:1015100001F048FE0821204601F0CCFE08212046BB
:1015200001F0CEFE0821204601F0D4FE082120461D
:1015300001F0D6FE0121204601F044FD01212046A4
:1015400001F05CFD0AB0BDE8F08170B504463F4D86
:10155000002C09DA6142284601F084FE2846BDE8E5
:101560007040002101F080BE0021284601F07AFE83
:1015700021462846BDE8704001F076BE70B50446AD
:10158000324D002C09DA6142284601F06FFE2846F0
:10159000BDE87040002101F06BBE0021284601F03B
:1015A00065FE21462846BDE8704001F061BE284A2C
:1015B0001060284801607047254A40421060254865
:1015C00001607047224A1060484222490860704713
:1015D0001F4A4042106048421E49086070471C493B
:1015E000002008601B490860704710B5FFF7EAF853
:1015F0004FF4617464210846FFF7D9FFFFF7EAF85A
:10160000A042F7D910BD70B5FFF7DCF84FF69C7516
:101610004FF4617464212846FFF7CEFFFFF7DAF834
:10162000A042F7D970BD70B5FFF7CCF84FF69C75A6
:101630004FF4617464212846FFF7C4FFFFF7CAF82E
:10164000A042F7D970BD0000000C02400008004025
:101650005C0000206000002070B50546F74E0029B0
:1016600004D00821304601F0E9F803E008213046B3
:1016700001F0E6F80421304601F0E2F800241021E0
:10168000304601F0DDF8280604D52021304601F06F
:10169000D5F803E02021304601F0D2F81021304681
:1016A00001F0CCF86D00641CE4B2082CE7D330469E
:1016B000BDE87040082101F0C1B810B50446002C07
:1016C00003D10021A620FFF7C7FF012C04D1002180
:1016D000BDE81040A720BFE710BD10B50446002CA0
:1016E00007D10021C820FFF7B7FF0021A120FFF795
:1016F000B3FF012C08D10021C020FFF7ADFF00216E
:10170000BDE81040A020A7E710BD70B5002500215E
:1017100005F1B000FFF7A0FF00211020FFF79CFFAC
:1017200000210846FFF798FF002401210020FFF761
:1017300093FF641CE4B2802CF7D36D1CEDB2082D2E
:10174000E5D370BD10B5044608460021B030FFF760
:1017500083FF102040EA14100021FFF77DFF04F002
:101760000F00BDE81040002176E770B50546002661
:1017700031460020FFF7E6FF002428780121FFF71B
:101780006BFF6D1C641CE4B2802CF6D3761CF6B2A1
:10179000082EEDD370BD2DE9F04180460F46154669
:1017A0000026F9B208F0FF00FFF7CCFF00242878EC
:1017B0000121FFF751FF6D1C641CE4B2102CF6D31D
:1017C0007F1C761CF6B2022EEBD3BDE8F0812DE92A
:1017D000F04180460F4615460026F9B24046FFF715
:1017E000B1FF002428780121FFF736FF6D1C641C2F
:1017F000E4B2082CF6D37F1C761CF6B2022EECD392
:10180000E3E770B51546C9B2FFF79CFF00242878BE
:101810000121FFF721FF6D1C641CE4B2062CF6D3F6
:1018200070BD70B505460024844E280604D52021DD
:10183000304601F003F803E02021304601F000F8C3
:101840006806050E1021304600F0FAFF10213046E0
:1018500000F0F4FF641CE4B2082CE6D370BD70B550
:1018600000240025754E1021304600F0E9FF600687
:10187000040E0221304600F0CDFF08B1641CE4B232
:101880001021304600F0DAFF6D1CEDB2082DEAD3CE
:10189000204670BD2DE9F0478146089E0C469046D3
:1018A0001D46664F0421384600F0C8FF0121384626
:1018B00000F0C6FF0320FFF7B4FF4846FFF7B1FF73
:1018C0002046FFF7AEFF4046FFF7ABFF002405E0E0
:1018D0002046FFF7C4FF2855641CE4B2B442F7D396
:1018E0003846BDE8F047012100F0A8BF2DE9F043DC
:1018F0008DB081460D46164600244FF02008504F0B
:101900006AE0A0F1B001472921D832195378A12B00
:101910001DD35E2041433960507801F2AD21084467
:1019200040013860C0F3074CC0F30721C2B205ABD9
:101930006046CDF80080FFF7ADFF05AA494628466E
:10194000FFF729FF1035EDB2A41CE4B244E0A0F18A
:10195000A101022920D832195378A12B1CD35E2073
:10196000414339605078A139084440013860C0F3E0
:10197000074CC0F30721C2B205AB6046CDF800802A
:10198000FFF788FF05AA49462846FFF704FF1035F0
:10199000EDB2A41CE4B21FE020385E281AD8305DF6
:1019A00020380001274908443860C0F3074CC0F3D1
:1019B0000721C2B21020009001AB6046FFF76AFF1A
:1019C00001AA49462846FFF702FF0835EDB2641C1C
:1019D000E4B201E0641CE4B2305D002891D10DB0A6
:1019E000BDE8F083FEB507460D461646002420E00C
:1019F00020385E281BD8305D11492038C000124ABB
:101A000010440860C0F3074CC0F30721C2B208209D
:101A1000009001AB6046FFF73DFF01AA394628461A
:101A2000FFF7EFFEAD1DEDB2641CE4B201E0641CF3
:101A3000E4B2305D0028DBD1FEBD000000100240A2
:101A4000A800002080CF0300C0BF03002DE9F041B3
:101A50008846174600EBC7000830C4B2DFEDA00A85
:101A600020EE200ABCEEC00A10EE106AA4F11800A5
:101A7000C0B29CA24146FFF739FF002552E00A2080
:101A8000B6FBF0F100FB1163B6FBF0F6083CE4B2E4
:101A9000022D01D1083CE4B20A2B41D2DFE803F069
:101AA000050B11171D23292F353B8FA241462046D8
:101AB000FFF71CFF34E08DA241462046FFF716FFDA
:101AC0002EE08BA241462046FFF710FF28E089A2B6
:101AD00041462046FFF70AFF22E087A24146204602
:101AE000FFF704FF1CE085A241462046FFF7FEFEFB
:101AF00016E083A241462046FFF7F8FE10E081A2DF
:101B000041462046FFF7F2FE0AE07FA2414620460A
:101B1000FFF7ECFE04E07DA241462046FFF7E6FE1B
:101B20006D1CEDB2BD42AAD34FE62DE9FC41012167
:101B3000102001F02EF83F20009001248DF8044081
:101B400000258DF8065003268DF805608DF80740B6
:101B50006F4F6946384600F009FE022000908DF86C
:101B600004508DF806508DF805608DF807406946E1
:101B7000384600F0FBFD3F21384600F05FFEC820EC
:101B800000F003F90021AE20FFF766FD00210846B2
:101B9000FFF762FD00211020FFF75EFD00214020CD
:101BA000FFF75AFD00218120FFF756FD0021CF20CD
:101BB000FFF752FD0021A120FFF74EFD0021C820B4
:101BC000FFF74AFD0021A620FFF746FD0021A820CF
:101BD000FFF742FD00213F20FFF73EFD0021D3200B
:101BE000FFF73AFD00210846FFF736FD0021D5201A
:101BF000FFF732FD00218020FFF72EFD0021D920C4
:101C0000FFF72AFD0021F120FFF726FD0021DA2051
:101C1000FFF722FD00211220FFF71EFD0021DB202F
:101C2000FFF71AFD00214020FFF716FD00212020BC
:101C3000FFF712FD00210220FFF70EFD00218D208D
:101C4000FFF70AFD00211420FFF706FD0021A42064
:101C5000FFF702FD0021A620FFF7FEFC0021AF20C8
:101C6000FFF7FAFCFFF751FDBDE8FC811CB54FF40E
:101C70007A73B2FBF3F430348DF80040B2FBF3F426
:101C800003FB14246423B4FBF3F430348DF80140D7
:101C9000B2FBF3F403FB14240A23B4FBF3F4303453
:101CA0008DF80240B2FBF3F403FB142230328DF8BE
:101CB000032000228DF804206A46FFF717FE1CBDA2
:101CC00038B50A23B2FBF3F403FB142230328DF84B
:101CD000002000228DF801206A46FFF707FE38BD7C
:101CE0000000C8422E00000030000000310000005B
:101CF0003200000033000000340000003500000016
:101D000036000000370000003800000039000000F5
:101D10000010024010B504F019F8012803D0BDE806
:101D2000104004F06CBE10BD10B50446042000F055
:101D300034FA294804704FF47A714C4301214180F0
:101D40004FF0E021086940F0020008614C61086929
:101D500040F00100086110BD70B500214FF0E02592
:101D60006C691D4A12785043AB69AA699A42FCD04B
:101D700003D2A3EB0203194403E0A4EB02063344AD
:101D8000194413468142F0D370BD70B5044603F088
:101D9000DDFF01280CD0104D6888844203D3B4FBCA
:101DA000F0F003F055FB6888B4FBF0F100FB114440
:101DB0004FF47A706043BDE87040CDE770B50546DA
:101DC00000244FF47A7603E03046FFF7C5FF641C29
:101DD000AC42F9D370BD0000AC0000207047BA4996
:101DE0000A885206FCD5C2B28A8070472DE9F041BC
:101DF00088B006460121084600F0CBFE01211020E4
:101E000000F0F7FEDFF8C48207220921404600F007
:101E100025FD07220A21404600F020FD4FF4C06056
:101E2000069002258DF81C508DF81D5000248DF869
:101E30001E4001278DF81F7006A9404600F096FC51
:101E40000296ADF80C40ADF80E40ADF81040ADF87C
:101E500014400C20ADF812009B4E02A9304601F050
:101E600065FD0121304601F0DAFD012240F22551E5
:101E7000304601F087FE25208DF804008DF80540DE
:101E80008DF806508DF8077001A800F042F908B0EF
:101E9000BDE8F0812DE9F04188B080460121084677
:101EA00000F077FE0121480400F0A3FE874F0722CF
:101EB0000221384600F0D2FC07220321384600F008
:101EC000CDFC0C26069602218DF81C108DF81D10F5
:101ED00000248DF81E4001258DF81F5006A93846B4
:101EE00000F044FCCDF80880ADF80C40ADF80E4091
:101EF000ADF81040ADF81440ADF81260744E02A970
:101F0000304601F013FD0121304601F088FD012229
:101F100040F22551304601F035FE26208DF80400B0
:101F20008DF805408DF806508DF8075001A800F097
:101F3000F0F8ACE72DE9F04188B005460121022018
:101F400000F027FE0121880400F047FE614F38466B
:101F500001F07CFCDFF8808107220A21404600F076
:101F60007DFC07220B21404600F078FC4FF44060D6
:101F7000069002208DF81C008DF81D0000248DF8BD
:101F80001E4001268DF81F6006A9404600F0EEFBBA
:101F90000295ADF80C40ADF80E40ADF81040ADF82C
:101FA00014400C20ADF8120002A9384601F0BEFC26
:101FB0000121384601F033FD012240F22551384617
:101FC00001F0E0FD27208DF804008DF805408DF824
:101FD00006408DF8076001A800F09BF857E72DE94F
:101FE000F04107460D46164600240CE015F8011B8B
:101FF000384601F040FD4021384601F0DEFD002862
:10200000F9D0641CA4B2B442F0D341E70FB430B5A8
:10201000CBB0054601AC50AB4FF4947101A84F9A78
:1020200005F080F90020009009E0641C284601F0CA
:1020300022FD4021284601F0C0FD0028F9D021787A
:102040000029F2D14BB030BC5DF814FB70B51E4CCA
:1020500040F22551204601F0BBFD00280ED020465D
:1020600001F00DFDC1B21D4A1088030406D44404DA
:102070004FF0000307D50A2901D0138070BD40F44A
:102080000040108070BD0D290AD0154DC0F30D041D
:102090002955401C80B21080C728F3D9138070BD29
:1020A00040F48040108070BD10B5074C40F22551BF
:1020B000204601F08DFD002805D02046BDE81040E7
:1020C000202101F081BD10BD001001400000024040
:1020D000004400400048004000040240B0000020DE
:1020E000680100200648804706480047FEE7FEE7F3
:1020F000FEE7FEE7FEE7FEE7FEE7FEE7FEE7FEE7B8
:1021000099050008890100082B4908432B490860FC
:10211000704730B50F23C27801250178002A1FD0FF
:10212000264A126802F4E062C2F5E062C2F30722B6
:10213000C2F10404D3404278A24084781C40144386
:10214000220101F1E02181F80024007800F01F0154
:102150008D404009800000F1E020C0F8005130BD02
:1021600001F01F0085404809800000F1E020C0F820
:10217000805130BD124A114001431048001F0160D8
:1021800070470E4A121D002903D0116801431160E7
:10219000704711688143116070474FF0E0210428B7
:1021A00004D0086920F0040008617047086940F015
:1021B00004000861704700000000FA050CED00E023
:1021C00080FFFF1F8100A1F1C04100280CD043F225
:1021D000D2020A60401C8000A0F1C0406FF0704243
:1021E0000260C1F8042170474FF0204343F2DB0244
:1021F0001A60EFE710B5D0E901121143D0E90323CB
:102200001A4311434269114382691143C269114360
:10221000026A1143426A1143826A1143C26A11433E
:10222000026B114302689200A2F1C0421160816802
:10223000082907D101688900A1F1C0410A6842F06C
:1022400040020A60416BD1E9002342EA03128B6825
:102250008C891B0243EA04431A430B8A42EA035265
:102260000B7D896942EA03620A430168491C8900BF
:10227000A1F1C0410A60C16AB1F5804F08D0006881
:102280006FF070418000A0F1C040C0F8041110BD93
:10229000816BD1E9002342EA03128B680C8A1B028E
:1022A00043EA04531A430B7D896942EA03620068DA
:1022B0000A438000A0F1C040C0F8042110BD0021F5
:1022C0000160022242608160C160016141618161FF
:1022D000C1610162D202426252008262C162016344
:1022E000D5494163816370478000A0F1C040002957
:1022F00004D0016841F00101016070470168CF4AD4
:1023000011400160704710B5182440234FF0204160
:102310004FF0FC32102805D041F8804F4B608A60A6
:10232000CA6010BD0C664B668A66CA6610BD30B5C1
:10233000D0E901121143D0E903231A431143426942
:1023400041EA4221826941EA423141F00804C1690F
:10235000D1E9002342EA03220B89097B1B0443EAEB
:1023600001610A43016AD1E9003543EA05230D8979
:10237000097B2D0445EA01610B4301684FF02040C1
:10238000102904D040F8804F8260C36030BD0466DD
:102390008266C36630BD102101600021416081600A
:1023A000C160016141618161C269FC211160C26942
:1023B0005160C2699160C269D160026A1160026AAB
:1023C0005160026A9160006AC16070474FF020421C
:1023D00000290CD0102805D052F8800F40F00400DE
:1023E00010607047106E40F004001066704793490B
:1023F000C91E102804D052F8800F084010607047A2
:10240000106E0840106670474FF0204200290CD033
:10241000102805D052F8800F40F04000106070473F
:10242000106E40F040001066704784493F39102814
:1024300004D052F8800F084010607047106E0840BA
:10244000106670474FF02041102802D0D1F8940058
:102450007047486F70477A48182101600021416039
:102460004FF0FC318160C1600161704710B5D0E967
:10247000001241EA42218268102343EA42321143AA
:102480006F4A1160C168D1E9003443EA04230C8922
:10249000097B240444EA01610B4393600169D1E99B
:1024A000003443EA04230C89097B240444EA0161D3
:1024B0000B43D3604069D0E9001341EA032103894B
:1024C000007B1B0443EA00600143116110BD002141
:1024D000016041608160C268FC211160C268516086
:1024E000C2689160C268D16002691160026951607E
:1024F000026991600269D16042691160426951606C
:10250000426991604069C16070474FF020410028E6
:1025100005D051F8A00F40F004000860704751F852
:10252000A00F464AD21E10400860704710B54FF405
:1025300080744FF02043002A11D0102806D0A0420A
:1025400008D153F8840F0843186010BD586E084333
:10255000586610BD53F8A40F0843186010BD10282A
:1025600006D0A04208D153F8840F8843186010BDEC
:10257000586E8843586610BD53F8A40F88431860FE
:1025800010BD034600204FF02042102B08D0B3F5B9
:10259000807F07D0D2F8A4200A4200D001207047E3
:1025A000526EF9E7D2F88420F6E74FF02042102867
:1025B00007D0B0F5807F08D052F8A40F8843106090
:1025C0007047506E88435066704752F8840F8843B6
:1025D00010607047034600204FF02042102B0ED0B1
:1025E000B3F5807F0DD0D2F8A42002EA010302EAFD
:1025F000D101002B02D0002900D001207047526E7B
:10260000F3E7D2F88420F0E74FF02042102808D0FA
:10261000B0F5807F0AD052F8A40F20EAD1001060F4
:102620007047506E20EAD1005066704752F8840F10
:1026300020EAD10010607047987E0008FEFF0F006E
:10264000A00000A010B58D49884209D1012108469B
:1026500000F0DBFA0021BDE81040012000F0D5BAFF
:102660008749884209D10121022000F0CEFA0021D9
:10267000BDE81040022000F0C8BA8249884209D162
:102680000121042000F0C1FA0021BDE8104004201F
:1026900000F0BBBA7C49884209D10121082000F032
:1026A000B4FA0021BDE81040082000F0AEBA774926
:1026B000884209D10121102000F0A7FA0021BDE8CD
:1026C0001040102000F0A1BA7149884209D10121BF
:1026D000202000F09AFA0021BDE81040202000F0F0
:1026E00094BA6C49884209D10121402000F08DFA4A
:1026F0000021BDE81040402000F087BA66498842BA
:1027000009D10121802000F080FA0021BDE81040AD
:10271000802000F07ABA614988420AD184150121EB
:10272000204600F072FA2046BDE81040002100F07B
:102730006CBA5B4988420AD144150121204600F059
:1027400064FA2046BDE81040002100F05EBA554909
:1027500088420AD104150121204600F056FA20468D
:10276000BDE81040002100F050BA10BD2DE9F04145
:10277000002201274FF0030C07FA02F50B682B40EB
:10278000AB422CD1066853000CFA03F4A643066052
:102790000E79D0F800809E4046EA080606600E7961
:1027A000012E01D0022E12D18668A64386604E7992
:1027B000D0F808809E4046EA080686604668AE4328
:1027C000466045688E799640B6B235434560C56827
:1027D000A543C560CC799C40C3681C43C460521CAF
:1027E000102AC9D3BDE8F0814FF6FF7101600021C6
:1027F000017141718171C171704708B541F4803236
:102800000092009AC261C1610099C161C169C06949
:10281000009008BD0246002012690A4200D0012043
:102820007047006980B270470246002052690A4230
:1028300000D001207047406980B270470183704723
:1028400041837047002A01D001837047418370475C
:102850004161704742694A404261704710B54B0779
:10286000DB0E9A40C90800EB8100016A0F249C40EE
:10287000A1430162016A1143016210BD00000240E0
:102880000004024000080240000C02400010024018
:102890000014024000180240001C024000200240C8
:1028A0000024024000280240FA48016841F001017A
:1028B0000160F84A0021083211600268F64B1A40A4
:1028C0000260031DF54A1A60F24BF54A84331A6020
:1028D000F24A103A1B1D1A60026822F4802202603C
:1028E000EC480C300160181D01607047E949002276
:1028F000891C0A700870704702460020510901299E
:102900000CD002290DD0E3497431096802F01F028E
:10291000012393400B4200D001207047DD49096834
:10292000F4E7DC4970310968F0E718B50020009041
:102930004FF4A0443120FFF7DFFF0099491C0091BC
:102940000099A14201D00028F4D03120FFF7D4FF34
:1029500008B1012018BD002018BDCE4A116821F031
:10296000F80141EAC00010607047CE490860704726
:10297000C849002270310A700A70012804D0042866
:1029800001D1052008707047012008707047C649C2
:102990000860704710B5029C41EA82114FF0FF3287
:1029A00002EB530241EA0241014341EA0460B949A2
:1029B000091D086010BDBB4908667047800140EAE8
:1029C0000170B449843108607047B6498866704721
:1029D000800140EA0160AF4940EA02708831086036
:1029E0007047B04908677047AE49C8647047A94B43
:1029F00008331A6822F0EC620843104318607047ED
:102A0000A44B08331A6822F0784208431043186038
:102A10007047A04A0832116821F003010143116098
:102A200070479C480830006800F00C007047994AD5
:102A30000832116821F0F001014311607047954A96
:102A40000832116821F4E051014311607047914A46
:102A50000832116821F4604141EAC00010607047FB
:102A600070B58C4B0833196801F00C018F4C0029AC
:102A70001ED0661004291DD008291DD004601968D5
:102A800001F0F00109098A4A545C0168E1404160A3
:102A90001C6804F4E054A40A145D21FA04F4846070
:102AA0001B6803F460435B0BD25CD140C16070BD16
:102AB0000460E4E70660E2E7764A121D1168C1F39C
:102AC0008055116801F03F0135B1B6FBF1F1146892
:102AD000C4F38814614305E0B4FBF1F11468C4F356
:102AE000881461431268C2F30142521C5200B1FBC8
:102AF000F2F10160C3E7C0F30121032908D1654B5E
:102B00000833196821F4F8126A4901401143196029
:102B1000604A70321168C0F30B00014311607047C6
:102B200061494439086070475F494039086070471F
:102B3000614908607047574A8C32116821F01F01C3
:102B4000401E014311607047524A8C32116821F4D3
:102B5000F851401E41EA0020106070474D4A8C3207
:102B6000116821F44011014311607047494A8C32C9
:102B7000116821F44001014311607047454A8C32CD
:102B8000116821F440310143116070474B490860DE
:102B90007047404A3032002903D011680143116068
:102BA000704711688143116070473A4A34320029F6
:102BB00003D01168014311607047116881431160AF
:102BC0007047344A3832002903D01168014311603C
:102BD000704711688143116070472E4A40320029C6
:102BE00003D011680143116070471168814311607F
:102BF0007047284A4432002903D01168014311600C
:102C000070471168814311607047224A10320029D1
:102C100003D011680143116070471168814311604E
:102C200070471C4A1432002903D011680143116017
:102C300070471168814311607047164A18320029A5
:102C400003D011680143116070471168814311601E
:102C50007047104A2032002903D0116801431160E7
:102C6000704711688143116070470A4A2432002975
:102C700003D01168014311607047116881431160EE
:102C80007047044A503200291AD01168014311607C
:102C90007047000000380240FFFFF6EA10300024C1
:102CA0000030002000004742800E47420024F4001C
:102CB000B8000020FFFCFF0F5C014742E0114742D3
:102CC000116881431160E3E72E4A002903D011689F
:102CD00001431160DCE7116881431160D8E7294A9C
:102CE000121D002903D0116801431160D0E711685B
:102CF00081431160CCE7234A0C32002903D01168CC
:102D000001431160C4E7116881431160C0E71D4AA7
:102D10001032002903D0116801431160B8E711682F
:102D200081431160B4E717491C31012804D00868B9
:102D300020F008000860ABE7086840F00800086071
:102D4000A6E7104A473A002903D0117801431170D1
:102D50009EE71178814311709AE70A482030016894
:102D600041F08071016093E701460020054A483A2E
:102D700012680A428CD001208AE70249463908705D
:102D800086E700005438024010B5F949884209D15D
:102D900001210846FFF769FF0021BDE8104001202E
:102DA000FFF763BFB0F1804F0CD0F249884213D1D6
:102DB00001210220FFF74DFF0021BDE81040022055
:102DC000FFF747BF01210846FFF743FF0021BDE899
:102DD00010400120FFF73DBFE749884209D101219A
:102DE0000420FFF736FF0021BDE810400420FFF764
:102DF00030BFE249884209D101210820FFF729FFAD
:102E00000021BDE810400820FFF723BFDC498842BD
:102E100009D101211020FFF71CFF0021BDE810405F
:102E20001020FFF716BFD749884209D10121202081
:102E3000FFF70FFF0021BDE810402020FFF709BF7A
:102E4000D149884209D101210220FFF70EFF00215C
:102E5000BDE810400220FFF708BFCC4988420AD1E4
:102E600001210C042046FFF700FF2046BDE810407A
:102E70000021FFF7FABEC64988420AD101214C045D
:102E80002046FFF7F2FE2046BDE810400021FFF784
:102E9000ECBEC04988420AD101218C042046FFF7CC
:102EA000E4FE2046BDE810400021FFF7DEBEBA492F
:102EB000884209D101214020FFF7CBFE0021BDE867
:102EC00010404020FFF7C5BEB449884209D1012116
:102ED0008020FFF7BEFE0021BDE810408020FFF7F4
:102EE000B8BEAF4988420AD1841501212046FFF7B8
:102EF000B0FE2046BDE810400021FFF7AABE10BD7D
:102F000030B502889A4CA04DA0420DD0A8420BD0FB
:102F1000B0F1804F08D0974B984205D0964B98421D
:102F200002D0964B984203D122F070034A881A438C
:102F3000934B984206D0934B984203D022F44073AF
:102F40000A891A4302804A68C2620A880285A0423E
:102F500001D0A84201D1897A01860121818230BD48
:102F60004FF0FF3141600021018001814180817279
:102F70007047018582827047028822F070020A43FE
:102F80000280704741627047C1627047406A704773
:102F9000008D7047002904D0018841F002010180B2
:102FA0007047018821F0020101807047002904D098
:102FB000018841F0040101807047018821F004017B
:102FC00001807047002904D0018841F08001018010
:102FD0007047018821F0800101807047028822F04B
:102FE0000802028002880A4302807047028822F4A5
:102FF0004072028002880A4302807047002904D090
:10300000018841F0010101807047018821F0010130
:103010000180704730B5028C22F001020284058CD9
:103020008388028B22F0700222F003020C88144382
:1030300025F002028D8915434A882A434C4DA84247
:1030400002D0514DA8420FD122F00805CA892A4367
:1030500022F004058A882A4323F4807323F4007342
:103060000D8A1D434B8A2B43838004838968416307
:10307000028430BD70B5028C22F010020284028CF2
:103080008388048B24F4E04424F440760D884FF6C2
:10309000FF7404EA0525354322F020028E8904EAF4
:1030A000061616434A8804EA02123243304EB042F2
:1030B00002D0354EB04217D122F08002CE8904EA08
:1030C0000616164326F040068A8804EA02123243A6
:1030D00023F4806323F400630E8A04EA86061E4309
:1030E0004B8A04EA830333438380058389688163C1
:1030F000028470BD70B5028C22F480720284028C4E
:103100008388848B24F0700424F003040D88254305
:1031100022F400728E894FF6FF7404EA06261643E5
:103120004A8804EA02223243114EB04202D0164EBF
:10313000B04217D122F40066CA8904EA022232435F
:1031400022F480668A8804EA0222324323F4805300
:1031500023F400530E8A04EA06161E434B8A04EA3F
:1031600003133343838085838968C163028470BD00
:10317000000001400004004000080040000C004036
:1031800000100040001400400004014000400140D5
:10319000004401400048014000180040001C00406D
:1031A0000020004070B5028C22F480520284058C0D
:1031B0008288838B23F4E04323F440760C884FF617
:1031C000FF7303EA0424344325F400558E8903EA8F
:1031D00006362E434D8803EA05353543FE4EB04290
:1031E00002D0FE4EB04205D122F480460A8A03EA9C
:1031F0008212324382808483896801640584B6E741
:10320000002101804180818081608181C1810182B2
:103210004182704730B500F1180301248C40058CC1
:10322000A5430584002912D0082910D0091FC1F335
:103230004E001844016848F6FF73194001600168A8
:103240004FF6FF7303EA02221143016030BD03EB26
:10325000510001684FF68F731940016001681143F6
:10326000016030BD4163704781637047C16370473F
:1032700001647047028B22F070020A430283704798
:10328000028B22F4E0424FF6FF7303EA012111435F
:1032900001837047828B22F070020A438283704759
:1032A000828B22F4E0424FF6FF7303EA01211143BF
:1032B00081837047028B22F008020A430283704721
:1032C000028B22F400624FF6FF7303EA01211143DF
:1032D00001837047828B22F008020A438283704781
:1032E000828B22F400624FF6FF7303EA012111433F
:1032F00081837047028B22F004020A4302837047E5
:10330000028B22F480624FF6FF7303EA012111431E
:1033100001837047828B22F004020A438283704744
:10332000828B22F480624FF6FF7303EA012111437E
:1033300081837047028B22F080020A430283704728
:10334000028BC2F30E024FF6FF7303EA0121114311
:1033500001837047828B22F080020A438283704788
:10336000828BC2F30E024FF6FF7303EA0121114371
:1033700081837047028C22F002020A430284704764
:10338000028C22F008020A4302847047028C22F069
:1033900020024FF6FF7303EA0111114301847047C5
:1033A000028C22F080024FF6FF7303EA01111143F1
:1033B00001847047028C22F400724FF6FF7303EA17
:1033C0000121114301847047028C22F400624FF600
:1033D000FF7303EA0121114301847047028C22F438
:1033E00000524FF6FF7303EA013111430184704725
:1033F00010B501238B40048C9C430484038C8A40C9
:103400001343038410BD10B504238B40048C9C43EC
:103410000484038C8A401343038410BD828B22F4FE
:1034200040628283828B4FF6FF7303EA01210A43D5
:103430008283704770B5048C24F480540484858B97
:10344000068C4FF6FF7404EA013125F4734504EA53
:1034500002222A4304EA0333134326F420420A4398
:1034600042F480518383018481E6828B22F00C0236
:103470008283828B0A4382837047F0B5048C24F4E4
:1034800080740484868B058C4FF6FF7707EA01244D
:1034900026F0F30607EA03111143314325F42062B5
:1034A000224342F4807281830284F0BD028B22F4B5
:1034B00040620283028B4FF6FF7303EA01210A4345
:1034C0000283704770B5048C24F010040484058BCB
:1034D000068C4FF6FF7404EA011125F4734504EAE3
:1034E00003332B4304EA02221A4326F0A0030B43C2
:1034F00043F010010283018439E6028B22F00C02B2
:103500000283028B0A430283704770B5048C24F057
:1035100001040484058B048C25F0F3054FF6FF7637
:1035200006EA031313432B4324F00A020A4342F032
:103530000101038301841AE670B506460C4625880E
:103540006188A2882389002D0BD0042D11D0082D6D
:1035500017D03046FFF76EFFE1883046BDE8704077
:103560005CE73046FFF7D1FFE1883046BDE87040A8
:10357000C3E73046FFF7A6FFE1883046BDE870405C
:1035800094E73046FFF779FFE1883046BDE87040A8
:103590006BE700210180418001228280C18001818E
:1035A00070472DE9F04107460C4600250126618849
:1035B000002900D10225A288012A00D102262088F4
:1035C0002389B0B13846FFF77DFFE1883846FFF721
:1035D0006DFF2389324603E00000014000040140F2
:1035E00029463846FFF791FFE1883846BDE8F041AB
:1035F00083E73846FFF789FFE1883846FFF77DFF0C
:103600002389324629463846FFF75CFFE188384671
:10361000BDE8F0414AE7406B7047806B7047C06B74
:103620007047006C704710B50A884B88CC881A43E5
:103630008B8823431A430B891A434B8989891A4380
:103640000A43A0F8442010BD002101804180818000
:10365000C1800181418181817047002905D030F806
:10366000441F41F400410180704730F8441FC1F30A
:103670000E0101807047002904D0818841F00401C7
:1036800081807047818821F0040181807047002982
:1036900004D0818841F0010181807047818821F048
:1036A000010181807047002A03D082890A43828108
:1036B000704782898A4382817047818270470246BF
:1036C0000020128A0A4200D001207047C9430182BB
:1036D000704702460020138A0B4092890A40002B53
:1036E00002D0002A00D001207047C94301827047F0
:1036F0001143A0F848107047002A03D082890A437A
:103700008281704782898A4382817047002904D070
:10371000818841F0080181807047818821F008018B
:1037200081807047018921F007010181704702897A
:1037300022F070020A430281704700B50346184622
:10374000FFF7F5FF188940F00700188100BD70B53C
:103750000D4604461146602D0CD001222046FFF78D
:10376000D4FE29462046FFF7E2FF208940F00700FB
:103770002081FCE401222046FFF7A4FEF1E730B5EA
:103780000489E4B24FF6FF7505EA032313430B43A4
:103790002343038130BD10B504462046FFF7EFFFF9
:1037A000208920F0070040F0070020F0700040F072
:1037B0007000208110BD10B504462046FFF7DFFFE2
:1037C000208940F48040208110BD828822F0700260
:1037D000828082880A4382807047028922F0070231
:1037E000028102890A4302817047028922F0800225
:1037F000028102890A430281704770B50589048BF2
:10380000068C25F007050D434FF6FC410C4040F2B5
:1038100001110C4326F022064FF6FF7101EA031155
:1038200011433143058104830184A0E4002904D0BD
:10383000818841F0800181807047818821F080017A
:1038400081807047A0F850107047000010B5F4490F
:10385000884209D101211020FFF707FA0021BDE8B5
:1038600010401020FFF701BAEE4988420AD1012129
:103870004C042046FFF7EDF92046BDE8104000213A
:10388000FFF7E7B9E84988420AD101218C042046B4
:10389000FFF7DFF92046BDE810400021FFF7D9B956
:1038A000E24988420AD10121CC042046FFF7D1F930
:1038B0002046BDE810400021FFF7CBB9DC49884223
:1038C0000AD101210C052046FFF7C3F92046BDE8C7
:1038D00010400021FFF7BDB9D649884209D1012126
:1038E0002020FFF7C2F90021BDE810402020FFF79B
:1038F000BCB9D14988420AD101218C072046FFF783
:10390000A8F92046BDE810400021FFF7A2B9CB4935
:1039100088420AD1440501212046FFF79AF9204642
:10392000BDE810400021FFF794B910BD7FB50446F3
:103930000D46208A20F44051E88808432082A0895F
:1039400041F20C618843A9882A8911436A8902439C
:103950001143A181A08A20F44071A8890843A08264
:103960006846FFF77DF8AE48844202D0B1488442F1
:1039700001D1039800E00298A189090408D500EB61
:10398000C00101EB001029684900B0FBF1F007E02D
:1039900000EBC00101EB001029688900B0FBF1F0D9
:1039A0006422B0FBF2F109010B096FF018056B43BB
:1039B00000EB8300A3891D044FF0320307D503EB0E
:1039C000C000B0FBF2F000F00700084306E003EB94
:1039D0000010B0FBF2F000F00F00084320817FBD23
:1039E0004FF41651016000218180C18001810C22B9
:1039F00042818181704710B5028A22F470630A887F
:103A00004C8822438C88C9880C4322431A43028283
:103A100010BD0021018041808180C1807047002954
:103A200004D0818941F4005181817047818921F45A
:103A3000005181817047028B02F47F420283028B26
:103A40000A4302837047002904D0818941F4004170
:103A5000818170478189C1F30E01818170470029FE
:103A600004D0818A41F4006181827047818A21F407
:103A7000006181827047C1F30801818070478088AE
:103A8000C0F308007047028A22F00F020282028A05
:103A90000A4302827047002904D0818941F0020163
:103AA00081817047818921F002018181704782897B
:103AB00022F40062828182890A4382817047028AED
:103AC00022F020020282028A0A4302827047002901
:103AD00004D0018A41F4804101827047018A21F4B7
:103AE000804101827047818941F0010181817047E5
:103AF000002904D0818A41F0080181827047818ABF
:103B000021F0080181827047028BD2B20283028BBE
:103B100042EA012101837047002904D0818A41F0E3
:103B2000200181827047818A21F0200181827047C3
:103B3000002904D0818A41F0100181827047818A76
:103B400021F0100181827047828A22F00402828271
:103B5000828A0A4382827047002904D0818A41F018
:103B6000020181827047818A21F0020181827047BF
:103B7000002A03D0828A0A4382827047828A8A435B
:103B80008282704710B540F66A13C1F3421301F008
:103B90001F040121A140012B07D0022B07D01430B4
:103BA0003AB102680A43026010BD0C30F8E71030E9
:103BB000F6E702688A43026010BD024600201288C0
:103BC0000A4200D0012070478A05C943018070472E
:103BD00070B5002440F66A12C1F3421301F01F05CC
:103BE000012606FA05F2012B0CD0022B0DD0838A98
:103BF0001340090A8E40008830400BB100B1012407
:103C0000204670BD83891340F3E7038A1340F0E731
:103C100040F66A120A0A01219140C94301807047A7
:103C2000001001400044004000480040004C0040AB
:103C3000005000400014014000780040007C00402B
:103C4000F84908707047F749002804D0086840F424
:103C5000807008607047086820F4807008607047C2
:103C6000F049002804D0086840F4007008607047EC
:103C7000086820F4007008607047EA49002804D002
:103C8000086840F4806008607047086820F480602D
:103C900008607047E348016841F4006101607047C3
:103CA000E048016841F4805101607047DD48103000
:103CB0000068002805DADB48DB49001D0160DB49AC
:103CC00001607047D7481030016841F00041016041
:103CD00070470920D3490C310A68D20301D501206D
:103CE00070470A68D20601D5062070470A68D205D7
:103CF00001D5022070470A6812F0EF0F01D00720AB
:103D0000704709688907FBD50820704708B5092066
:103D10000090FFF7DEFF009002E0FFF7DAFF00906F
:103D20009DF800000128F8D09DF8000008BD70B58E
:103D300006460025002905D0012928D0022929D0CE
:103D40004FF44075FFF7E2FF09281FD1B54C10343E
:103D5000206820F44070206020682843206020689C
:103D600020F0F8002060206846F00201084320603F
:103D7000206840F480302060FFF7C8FF216821F000
:103D800002012160216821F0F801216070BD4FF42B
:103D90008075D7E74FF40075D4E730B504460025A9
:103DA000FFF7B4FF2CB1012C1DD0022C1ED04FF414
:103DB0004075092816D19B4C1034206820F44070BF
:103DC0002060206828432060206840F004002060C4
:103DD000206840F480302060FFF798FF216821F0D0
:103DE0000401216030BD4FF48075E2E74FF40075A7
:103DF000DFE730B504460025FFF788FF2CB1012C22
:103E00001DD0022C1ED04FF44075092816D1854CC8
:103E10001034206820F4407020602068284320601F
:103E2000206840F004002060206840F4803020606A
:103E3000FFF76CFF216821F00401216030BD4FF4D1
:103E40008075E2E74FF40075DFE730B504460025E2
:103E5000FFF75CFF2CB1012C1DD0022C1ED04FF4BB
:103E60004075092816D16F4C1034206820F440703A
:103E70002060206828432060206840F400402060D3
:103E8000206840F480302060FFF740FF216821F473
:103E90000041216030BD4FF48075E2E74FF40075BA
:103EA000DFE7F0B5074615461E46FFF72FFF092846
:103EB00015D15C4C1034206820F4407020602068DC
:103EC00040F440702060206840F0010020603D60B8
:103ED0007E60FFF71BFF216821F001012160F0BD2A
:103EE00070B505460E46FFF711FF092814D14D4C59
:103EF0001034206820F440702060206840F4007086
:103F00002060206840F0010020602E60FFF7FEFE78
:103F1000216821F00101216070BD70B505460E4693
:103F2000FFF7F4FE092814D13E4C1034206820F429
:103F300040702060206840F480702060206840F06D
:103F4000010020602E80FFF7E1FE216821F00101D1
:103F5000216070BD70B506460D46FFF7D7FE0928F3
:103F600012D1304C1034206820F44070206020685A
:103F70002060206840F0010020603570FFF7C6FE29
:103F8000216821F00101216070BD264814300068CD
:103F9000C00705D023482649083001602549016043
:103FA000704720481430016841F0010101607047FA
:103FB00030B504460D46FFF7A9FE092805D119487A
:103FC00016301DB10188A143018030BD0188214315
:103FD000018030BD30B504460D46FFF797FE092835
:103FE00005D110481A301DB10188A143018030BDB0
:103FF00001882143018030BD0A4A1732117801F04F
:104000007F0108431070704730B504460D46FFF736
:104010007DFE092805D1034816306DB10188214382
:10402000018030BD003C024023016745AB89EFCDE4
:104030003B2A19087F6E5D4C0188A1430180F0E79F
:1040400030B504460D46FFF761FE0928E9D13E4828
:104050001DB1018821430180E3E70188A14301806C
:10406000DFE710B50446FFF751FE092802D13648B4
:10407000401F047010BD70B505460C461646FFF78C
:1040800045FE092808D1304A921F107800F00F0031
:10409000044334432C43147070BD2B49891F0A78A4
:1040A00022F010020A700A7802430A70704726490B
:1040B000891F0A7822F00C020A700A7802430A70FB
:1040C00070472148801F017841F0020101701DE610
:1040D0001D48801F0068C0F3471070471A48001F32
:1040E000008870471848008870471748001F0088EC
:1040F000704715480088704700201349491F097808
:10410000AA2900D0012070470F48801F007800F0D6
:104110000C0070470C4A0A3A002903D01168014389
:10412000116070471168814311607047014600209B
:10413000054A0E3A12680A4200D00120704702492F
:104140000E390860704700001A3C024003E011F885
:10415000013B00F8013B521E531CF8D1704701E0AF
:1041600000F8011B521E531CFAD1704770B504466B
:104170006D486E4E002150F8240006EB8405420085
:104180006869FFF7ECFF68480021183050F82420D8
:10419000A868FFF7E4FF0120311981F8200070BD05
:1041A00010B500220021604B604C53F8203004EB26
:1041B000800005E0446934F8114004B1521C491CE8
:1041C0008B42F7D864204243B2FBF3F0C0B210BD7B
:1041D0002DE9F04105460F460024DFF8508108EB39
:1041E000050090F82000002803D1D8F800102846D8
:1041F00088474FF0FF3307B34B4E0C3656F8250077
:10420000B7FBF0F18AB2B7FBF0F100FB117008B117
:10421000521C92B2444850F82510491E002920DB58
:1042200008EB8507786930F811C0BCF1000F07D0A2
:104230000024944212D100230AE01846BDE8F08120
:10424000641CA4B2F5E77869CC1820F814205B1C34
:104250009342F8D356F825004843EFE7491E00295A
:10426000E1DA1846EAE770B5304A131893F82030BF
:10427000002B13D02C4B183353F820308B421AD913
:10428000294B0C3353F82030B1FBF3F102EB8002E1
:10429000506930F811300020002408E01168884788
:1042A000012070BD55690E1825F81640401C984233
:1042B000F8DB002070BD022070BD002905D01B4A2C
:1042C00002EB80029268891ACDE7704710B5044668
:1042D0002046FFF77DFF411C05D0144901EB840106
:1042E0008968084410BD002010BD2DE9F041064644
:1042F0008846174639463046FFF76AFF0446601C79
:104300000FD00A483A4600EB86054146A86820448B
:10431000FFF71CFF41463046FFF7CFFFA868204457
:104320008CE700208AE70000B47E0008C800002067
:1043300000F1080141604FF0FF328260C16001610D
:1043400000210160704700210161704742684A60A6
:1043500093688B6093685960916008610168491C9B
:104360000160704730B50C68621C02D000F1080291
:1043700002E0026904E01A4653681D68A542FAD9B2
:1043800053684B6099608A60516008610168491CFC
:10439000016030BD0169D0E901329A60D0E90123A2
:1043A0005A604A68824201D182684A6000220261F2
:1043B0000868401E0860704770B504460D46002C22
:1043C00005D140F21B12F3A1F7A002F087FF02F023
:1043D000E9FAD4E90F20216802FB00116160002195
:1043E000A1632168A160E06B2268216C401E00FB84
:1043F0000121E1604FF0FF3084F8440084F845006B
:1044000004F110004DB1FFF793FF04F12400FFF712
:104410008FFF02F0E1FA012070BD21690029F8D078
:1044200001F0C7FB0028F4D0E3494FF0805008604A
:10443000BFF34F8FBFF36F8FEBE770B51D46049C42
:1044400000290BD02260E063216401212046FFF7A0
:10445000B3FF84F850500020A06470BD2460F2E7E0
:10446000F8B505460E461746002D05D14FF4C47227
:10447000C8A1CDA002F032FF86B105FB06F0543092
:1044800002F06BFB04463CB104F154023B4631465A
:1044900028460094FFF7D1FF2046F8BD0020EEE744
:1044A0002DE9F041044617460026A56B226C002A30
:1044B00010D0C7B1E06802F011FCE168206C091A65
:1044C000E1602268914202D26168081AE060022F1E
:1044D00016D017E02068A8B9606801F082FC064693
:1044E000002060600EE0A06802F0F8FB216CA0687C
:1044F0000844A0606168884204D32068A06001E09D
:1045000005B16D1E6D1CA5633046BDE8F0812DE937
:10451000F3410F460098846C0026002C05D140F62C
:10452000CE129CA1A0A002F0D9FEA06BE16B884244
:1045300005D340F6CF1297A19BA002F0CFFEA06B4F
:10454000E16B88420CD294F945503A4669462046C0
:10455000FFF7A6FF0646681C05D06D1C84F8455081
:104560003046BDE8FC81606A0028F9D004F12400DF
:1045700001F01FFB0028F3D00126F1E72DE9F041FF
:10458000044602F00FFA94F9455004F1240613E0B2
:10459000A06C38B100212046FFF7B9FF50B101F0FF
:1045A000C4FB07E0606A48B1304601F002FB08B185
:1045B00001F0BBFB6D1E6DB2002DE9DC4FF0FF3644
:1045C00084F8456002F008FA02F0ECF994F94450DE
:1045D00004F1100709E0206948B1384601F0E9FA12
:1045E00008B101F0A2FB6D1E6DB2002DF3DC84F862
:1045F0004460BDE8F04102F0EFB910B5044602F0A6
:10460000D1F9A06BE16B884201D1012400E00024C4
:1046100002F0E2F9204610BD2DE9FF4782B00446C2
:104620008A4698460025002C05D140F2D92259A18E
:104630005DA002F053FEBAF1000F07D1206C28B143
:1046400040F2DA2253A158A002F048FEB8F1020F5E
:1046500008D1E06B012805D040F2DB224DA152A029
:1046600002F03CFE01F072FB38B9049828B140F228
:10467000DE2248A14CA002F031FE4FF000094FF0BD
:1046800080564D4F02F08EF9A06BE16B884206D345
:10469000B8F1020F03D0049860B37DB333E0424613
:1046A00051462046FFF7FCFEA16C51B14146204621
:1046B000FFF72DFFC0B13E60BFF34F8FBFF36F8F89
:1046C00012E0616A51B104F1240001F072FA58B1AC
:1046D0003E60BFF34F8FBFF36F8F05E020B13E60A8
:1046E000BFF34F8FBFF36F8F02F076F9012006B052
:1046F000BDE8F08702F070F90020F8E7FFE76846B0
:1047000001F0C9FA012502F067F900F054FE02F049
:1047100049F994F94400401C01D184F8449094F97B
:104720004500401C01D184F8459002F055F904A9D8
:10473000684601F0C2FA30B12046FFF71FFF00F0D3
:104740008EFD0020D3E72046FFF757FF88B104F124
:104750001000049901F0C0F92046FFF70FFF00F0A8
:104760007EFD00288ED13E60BFF34F8FBFF36F8F69
:1047700088E72046FFF702FF00F071FD82E700287E
:104780001CD0002141600160C16000231A46194617
:1047900042E700002E2E5C4672656552544F535C12
:1047A00071756575652E63004572726F723A257377
:1047B0002C25640D0A00000004ED00E0704710B5E0
:1047C000024600210120FFF74BFE04462046FFF77A
:1047D000D6FF204610BD10B50446002C07D140F28C
:1047E0004122AFF25001AFF2400002F077FD01F03C
:1047F000AAFA616888420BD1E068401EE06028B9DF
:1048000000231A4619462046FFF706FF012010BD77
:10481000002010BD10B5044602F0C4F8A06B20B112
:10482000002402F0D9F8204610BD0124F9E730B485
:104830000B46026C002A0CD0C1681144C160446868
:10484000A14201D30168C160C16830BC184602F0C2
:1048500045BA30BC70472DE9FF4F83B004468A4605
:104860009B460026002C07D140F2DC42AFF2DC016F
:10487000AFF2CC0002F032FDBAF1000F09D1206C8A
:1048800038B140F2DD42AFF2F401AFF2E40002F0E1
:1048900025FD01F05BFA48B9059838B14FF49C62E8
:1048A000AFF21011AFF2001002F018FD4FF0000946
:1048B0004FF08057DFF8548602F074F8A56B95B37B
:1048C000E66851462046FFF7B2FFBBF1000F13D058
:1048D000E660606A50B104F1240001F06AF928B181
:1048E000C8F80070BFF34F8FBFF36F8F02F074F8FA
:1048F000012007B0BDE8F08F6D1EA563206810B9D8
:1049000001F027FB606020690028EFD004F110005F
:1049100001F04FF90028E9D0C8F80070BFF34F8FBD
:10492000BFF36F8FE2E7FFE7059808B126B107E014
:1049300002F052F80020DCE701A801F0ACF90126F2
:1049400002F04AF800F037FD02F02CF894F9440028
:10495000401C01D184F8449094F94500401C01D1D9
:1049600084F8459002F038F805A901A801F0A5F9EE
:1049700058B12046FFF702FE00F071FC2046FFF719
:1049800049FF002898D00020B3E72046FFF742FFF8
:10499000E0B1206830B902F005F8606801F0E2F992
:1049A00002F01AF804F12400059901F095F8204668
:1049B000FFF7E4FD00F053FC00287FF47DAFC8F85A
:1049C0000070BFF34F8FBFF36F8F75E72046FFF77F
:1049D000D5FD00F044FC6FE770B504460D46002C91
:1049E00007D14FF41E72AFF25421AFF2442002F00F
:1049F00075FC01F0A8F96368984204D1E068401C96
:104A0000E060012070BD00232A4619462046FFF7CA
:104A100022FF0028F6D0E168491CE16070BD70B546
:104A200005460C46002D07D140F2BD22AFF29C2175
:104A3000AFF28C2002F052FCAC4207D940F2BE2209
:104A4000AFF2B021AFF2A02002F048FC0222002118
:104A50002846FFF705FD002800D0846370BD2DE9CE
:104A6000F0470446894615469846002C07D140F287
:104A70009F32AFF2E021AFF2D02002F02FFCB9F16B
:104A8000000F09D1206C38B14FF46872AFF2FC21ED
:104A9000AFF2EC2002F022FCB8F1020F0AD1E06B79
:104AA000012807D040F2A132AFF21831AFF208303E
:104AB00002F014FC01F0B7FF5020EFF3118780F3F0
:104AC0001188BFF34F8FBFF36F8FA06BE16B8842EC
:104AD00006D3B8F1020F03D0002087F3118807E650
:104AE00094F94560424649462046FFF7D9FC701CC0
:104AF00004D0761C84F845600120EEE7A06C012606
:104B000048B141462046FFF702FD0028F4D0002DB1
:104B1000F2D02E60F0E7606A0028EDD004F12400A6
:104B200001F047F80028E7D0002DE5D02E60E3E73C
:104B30002DE9F04104460D46002C07D140F23C42DD
:104B4000AFF2B031AFF2A03002F0C8FB206C38B148
:104B50004FF48862AFF2C431AFF2B43002F0BEFB62
:104B6000206848B9606838B140F24542AFF2DC31A4
:104B7000AFF2CC3002F0B2FB01F055FF5020EFF362
:104B8000118680F31188BFF34F8FBFF36F8FA16B36
:104B9000E06B884224D994F94500491CA163411C6B
:104BA00004D0401C84F8450001201AE0A06C0127C5
:104BB00048B100212046FFF7AAFC0028F4D0002DC0
:104BC000F2D02F60F0E7606A0028EDD004F12400F5
:104BD00000F0EFFF0028E7D0002DE5D02F60E3E7DD
:104BE000002086F3118890E42DE9F04704468946B9
:104BF0009046002C07D14FF4B462AFF26841AFF297
:104C0000584002F06BFBB9F1000F09D1206C38B1AC
:104C100040F2A152AFF28441AFF2744002F05EFB69
:104C200001F001FF5020EFF3118780F31188BFF3EB
:104C30004F8FBFF36F8FA66BF6B194F9445049467E
:104C40002046FFF7F4FD761EA663681C04D06D1C99
:104C500084F84450012010E020690028FAD004F1C3
:104C6000100000F0A6FF0028F4D0B8F1000FF1D03A
:104C70000120C8F80000EDE7002087F3118837E530
:104C80002DE9F04104460F46002C07D140F2FC52BA
:104C9000AFF20051AFF2F04002F020FB4FB9206CB0
:104CA00038B140F2FD52AFF21451AFF2045002F0AD
:104CB00015FB206C38B940F2FE52AFF22851AFF22A
:104CC000185002F00BFB01F0AEFE5020EFF31185FF
:104CD00080F31188BFF34F8FBFF36F8FA06B38B194
:104CE000E66839462046FFF7A2FDE660012000E0B5
:104CF000002085F3118808E410B50446002C07D184
:104D000040F22F62AFF27451AFF2645002F0E6FA53
:104D100001F048FEA46B01F05FFE204610BD10B507
:104D20000446002C07D140F24162AFF29851AFF235
:104D3000885002F0D3FA01F035FED4E90E10441A7F
:104D400001F04AFE204610BD10B50446002C07D1E4
:104D500040F25162AFF2C451AFF2B45002F0BEFA69
:104D6000A06B10BD00216A4A02EBC1035B6883425D
:104D700006D1002042F8310002EBC10148607047C3
:104D8000491C0829F0D3704710B50446002C07D100
:104D900040F25D62AFF20461AFF2F45002F09EFAAD
:104DA0002046FFF7DFFF2046BDE8104001F03CBF82
:104DB000C06C7047C164704790F85000704710B5E0
:104DC0000446002C07D140F29372AFF23861AFF283
:104DD000286002F083FAA06B08B1002010BD01200A
:104DE00010BD10B50446002C07D140F2BA72AFF2E4
:104DF0005C61AFF24C6002F071FAA06BE16B88422B
:104E000001D1012010BD002010BD10B50022404B83
:104E100053F832401CB1521C082AF9D310BD43F894
:104E2000321003EBC201486010BD10B50024002110
:104E3000374A02EBC1035B68834202D152F831402A
:104E400002E0491C0829F4D3204610BD70B5044681
:104E50000D46164601F0A6FD94F944304FF00000CF
:104E60005B1C01D184F8440094F94510491C01D120
:104E700084F8450001F0B0FDA06B28B93246294600
:104E800004F1240000F078FE2046BDE87040FFF7F2
:104E900075BB00220421FFF7E3BA70B504460D4646
:104EA00001F080FDA06C08B1002405E0A06B08B102
:104EB000002401E0A564012401F08EFD204670BDB0
:104EC00010B50446A06C884201D0002010BDA06B34
:104ED00008B1002010BD01F065FD0020A06401F0C4
:104EE0007BFD012010BD08B5002300930A466946EA
:104EF000FFF7B1FC009808BD08B500210091002221
:104F00006946FFF771FE009808BD000004ED00E05F
:104F10003056012070B50024FE4D04EB840005EBF3
:104F20008000FFF705FA641C202CF6D3FA48FFF73F
:104F3000FFF9F9481430FFF7FBF9F7482830FFF77D
:104F4000F7F9F5483C30FFF7F3F9F3485030FFF735
:104F5000EFF9F248F04941631431816370BD70B5D7
:104F6000044601F01FFDED4DA868401CA8602868AC
:104F700010B1686938B10CE02C60A868012808D12C
:104F8000FFF7C8FF05E02868E16AC06A884200D8D8
:104F90002C60686A401C6862A064E06A01212A698A
:104FA000814011432961DB4900EB800001EB800067
:104FB000211DFFF7CBF901F00FFD686900280CD027
:104FC0002868E16AC06A884207D2D5494FF080500C
:104FD0000860BFF34F8FBFF36F8F70BD2DE9F047AF
:104FE0008146DDE908580A9C0E4617469A46B900E4
:104FF000A522206B01F084FE206B7F1E00EB870052
:1050000020F00707780705D040F22B32C5A1CAA0CF
:1050100002F064F900202218315C82F83410315C0F
:1050200011B1401C1428F6D3002684F84760202DC7
:1050300000D31F25E56225656665201DFFF783F90E
:1050400004F11800FFF77FF92461C5F12000A06189
:105050006462A66584F85C6052464946384601F0B1
:1050600019FC2060B8F1000F01D0C8F80040BDE87D
:10507000F0872DE9FF5F8146DDE90E788A46164606
:105080009B46B00001F069FD054628000AD060206B
:1050900001F063FD04460CB1256304E0284601F0ED
:1050A000C3FD00E000248CB10020CDE90240CDE931
:1050B00000785B46324651464846FFF78FFF204650
:1050C000FFF74DFF012004B0BDE8F09F4FF0FF3027
:1050D000F9E79248416B0968002905D0416BC9681E
:1050E000C9684968816270474FF0FF31816270473B
:1050F00010B50446206B01F097FD2046BDE8104036
:1051000001F092BD70B5044601F04CFC834D04B92A
:105110002C68201DFFF73EF958B9E06A7D4A00EB84
:10512000800152F8211021B901218140286988436A
:105130002861A06A18B104F11800FFF72BF9686A1A
:10514000401C68622868844208D17348211D3C30A5
:10515000FFF7FCF86868401C686007E0A868401E1C
:10516000A8602046FFF7C4FFFFF7B3FF01F034FC4F
:105170006869002812D0286884420FD1286B28B1B2
:1051800040F2654267A16CA002F0A8F864494FF0B4
:1051900080500860BFF34F8FBFF36F8F70BD2DE954
:1051A000F04100265D4F386B002808D0B869401CDC
:1051B000B861F86900B101263046BDE8F081FD68AC
:1051C0006D1CFD608DB9786B006828B140F6D9126E
:1051D00054A159A002F082F8786BB96B7963B86377
:1051E000386A401C3862FFF774FFB86ADFF8248120
:1051F00085420DD3786B006838B1786BC068C4689D
:10520000606885420ED2B86202E04FF0FF30B862AB
:105210003868C06A00EB800058F820000128C8D91F
:105220000126C6E7201DFFF7B5F8A06A18B104F102
:105230001800FFF7AFF8E06A01213A698140114395
:10524000396100EB800008EB8000211DFFF77EF83C
:10525000E06A3968C96A8842CCD30126CAE72DE9D9
:10526000F041002400272D4D286B002805D14FF474
:10527000FD622CA130A002F031F801F093FB286B05
:10528000401E2863286BE8BBA868D8B3DFF8888085
:10529000012608F128081DE0D8F80C00C46804F1C4
:1052A0001800FFF777F8201DFFF774F8E06A2A6905
:1052B00006FA00F111432961164900EB800001EB69
:1052C0008000211DFFF742F8E06A2968C96A884218
:1052D00000D3EE61D8F800000028DDD10CB1FFF753
:1052E000F8FEAC6944B1FFF75AFF00B1EE61641EED
:1052F000002CF8D10020A861E86918B1012738070F
:10530000074900E004E00860BFF34F8FBFF36F8FE1
:105310001AE0000070560120F0580120EC00002037
:1053200004ED00E02E2E5C4672656552544F535CCE
:105330007461736B732E63004572726F723A2573DA
:105340002C25640D0A00000001F046FB384634E7C6
:105350002DE9F04104460F46FE4EF5683068001D09
:10536000FFF718F838B9306890F82C100120884001
:10537000316981433161601C07D137B13168BDE8C3
:10538000F041091DF448FEF7E1BF2C443068446049
:10539000AC4206D23168B06B091DBDE8F041FEF7A2
:1053A000E1BF3168706B091DFEF7DCFFB06A844213
:1053B00000D2B46201E7E748016B491C0163704702
:1053C0002DE9F04105460E460024002D07D140F29C
:1053D0007942AFF2B001AFF2A00001F07FFF3EB919
:1053E00040F27A42AFF2C401AFF2B40001F076FFAE
:1053F000D84F386B38B140F27B42AFF2D801AFF2F0
:10540000C80001F06BFFFFF7D6FFFA682B68991907
:10541000934205D98B4208D9914206D9012404E070
:105420008B4201D8914200D9012429601CB1881A0D
:105430000021FFF78DFFFFF712FF002807D1C749B2
:105440004FF080500860BFF34F8FBFF36F8FB4E60B
:1054500010B504460020002C12D0BE48006B38B1B5
:1054600040F2CF42AFF24411AFF2341001F036FFF8
:10547000FFF7A1FF00212046FFF76AFFFFF7EFFECD
:10548000002807D1B5494FF080500860BFF34F8F17
:10549000BFF36F8F10BD70B50546002D07D140F2E8
:1054A000FB42AFF28011AFF2701001F017FFA94E6E
:1054B0003068854201D1002070BD01F073FA6C693B
:1054C00001F08AFA706B844202D0B06B844201D141
:1054D000022070BDA048844205D1A86A08B102200C
:1054E00070BD032070BD9C481438844202D00CB1BA
:1054F000012070BD042070BD10B5044601F052FAC1
:105500000CB994480468E46A01F066FA204610BDBC
:1055100010B5044601F087FA5020EFF3118180F3B3
:105520001188BFF34F8FBFF36F8F0CB989480468A0
:10553000E06A81F3118810BD2DE9F04104460D4663
:105540000026202D07D34FF4B062AFF22821AFF22E
:10555000182001F0C3FE202D00D31F2501F022FAF0
:105560007C4F04B93C68206DA84241D0854208D9DF
:1055700039688C4209D03968C96AA94205D8012620
:1055800003E039688C4200D10126D4F82C804045D4
:1055900000D1E5622565A069002802DBC5F1200085
:1055A000A0616F4D08EB8801606905EB81018842BD
:1055B00015D1201DFEF7EEFE012120B93A6901FA4E
:1055C00008F082433A61E06A3A69814011433961E7
:1055D00000EB800005EB8000211DFEF7B7FE3EB119
:1055E0005E494FF080500860BFF34F8FBFF36F8F5D
:1055F000BDE8F04101F0F0B970B5564D286B0028B8
:1056000002D00120E86170BD0020E8612869B0FA8D
:1056100080F0C0F11F00524E00EB800456F82400C9
:1056200038B940F6F622AFF20431AFF2F42001F0BF
:1056300055FE06EB840041684968416000F10802AC
:10564000914201D1496841604068C068286070BDDE
:1056500070B5044601F0A6F93E4D04B92C68201D32
:10566000FEF798FE58B9E06A3D4A00EB800152F817
:10567000211021B901218140286988432861A06A4D
:1056800018B104F11800FEF785FE211D3248FEF71F
:105690005DFE01F0A1F9686928B101F083F9FFF717
:1056A00018FD01F099F92868844213D1686990B116
:1056B000286B38B140F25762AFF29831AFF28830C0
:1056C00001F00CFE25494FF080500860BFF34F8F6A
:1056D000BFF36F8F70BD2048A9680068884202D16F
:1056E0000020286070BDBDE8704085E770B50025DA
:1056F0000446002807D140F28162AFF2D831AFF200
:10570000C83001F0EBFD14496069884205D1A06AF8
:105710002839884201D000B90125284670BD70B5EE
:105720000446002807D140F2AB62AFF20841AFF265
:10573000F83001F0D3FD002C35D0064D28688442A6
:1057400031D001F02FF92046FFF7D0FF38B3201DEC
:1057500008E00000EC0000204059012004ED00E0CA
:1057600070560120FEF716FEE06A01212A69814089
:1057700011432961F94900EB800001EB8000211DF4
:10578000FEF7E4FDE06A2968C96A884207D3F44954
:105790004FF080500860BFF34F8FBFF36F8FBDE8AD
:1057A000704001F019B970BD2DE9F04100260446A2
:1057B000002807D140F2E262AFF29841AFF2884090
:1057C00001F08CFD01F02FF95020EFF3118580F3EB
:1057D0001188BFF34F8FBFF36F8F2046FFF786FF0F
:1057E00038B1E04F386B40B104F11801DE48FEF7E4
:1057F000ADFD85F311883046DFE4E06A3968C96A97
:10580000884200D30126201DFEF7C4FDE06A012175
:105810003A69814011433961D04900EB800001EBC6
:105820008000211DFEF792FDE3E770B5CE4ECD4D11
:1058300014361CE0FFF7BFFD306820B10024FFF7ED
:105840000EFDA4B901E00124F9E701F0ABF8F0681E
:10585000C468201DFEF79EFDA868401EA860686809
:10586000401E686001F0B8F82046FFF741FC686808
:105870000028DFD170BDB94E4FF08054B84DFFF70E
:10588000D4FF30680128FAD92C60BFF34F8FBFF3E3
:105890006F8FF4E71CB5B34800242C30CDE90040ED
:1058A00023468222B1A1B348FFF7E3FB012801D1CF
:1058B00000F0BBFE01280CD0401C1ED140F28472C7
:1058C000AFF2A051AFF2905002B0BDE8104001F02D
:1058D00005BD502080F31188BFF34F8FBFF36F8F4A
:1058E000A0484FF0FF31816201214161C460FAF7A5
:1058F0009FFFBDE81C4000F0E9BF1CBD502080F3B5
:105900001188BFF34F8FBFF36F8F96490020486116
:1059100001F03CB89348C068704710B501F083F8B7
:105920009048C06810BD8F488068704710B5002847
:1059300002D004461CB10AE08A480468FAE740F63F
:105940008C02AFF22061AFF2106001F0C7FC04F1ED
:10595000340010BD002101E0401C491C0278A52A3A
:10596000FAD0880880B270472DE9F04707460C4608
:1059700090461E46002F0ED03D46256005F13400AE
:105980006060E86A2061286BE061A86CA060207B01
:10599000032803D00AE073480568EEE7FFF70BFD24
:1059A000A86A08B102202073FFF759FC286D6061D6
:1059B0004FF00009C4F81890052E01D0267303E0BB
:1059C0003846FFF768FD2073B8F1000F05D0286B4B
:1059D000FFF7C0FF2084BDE8F087A4F82090FAE725
:1059E0002DE9F04780460C469146002620680028A5
:1059F00021D0214648684068486001F10807B84254
:105A000001D1406848604868D0F80CA060684568DB
:105A10006560BD4201D1696861606068C56806EB78
:105A2000C60008EB80014B4601222846FFF79CFF89
:105A3000761C5545EAD13046CDE72DE9F0470646BC
:105A40000B46174600242025FFF7B5FCDFF814812C
:105A5000D8F8080083423BD3DFF800916D1E05EBB8
:105A6000850009EB800104EBC40006EB80000122F5
:105A7000FFF7B6FF0444002DF0D104EBC40006EBA1
:105A800080000222D8F83410FFF7AAFF044404EB88
:105A9000C40006EB80000222D8F83810FFF7A0FF00
:105AA0000444314904EBC40006EB800004221431A5
:105AB000FFF796FF04442C4904EBC40006EB80007A
:105AC00003222831FFF78CFF04440FB10020386017
:105AD000FFF7C5FB20467EE770B504460D46002C57
