:020000040800F2
:1000000038AD0120A10D00086D0400086F04000840
:100010007104000873040008750400080000000063
:10002000000000000000000000000000A101000826
:100030007704000800000000F5010008D10900085D
:10004000BB0D0008BB0D0008BB0D0008BB0D000870
:10005000BB0D0008BB0D0008BB0D0008BB0D000860
:10006000BB0D0008BB0D0008BB0D0008BB0D000850
:10007000BB0D0008BB0D0008BB0D0008BB0D000840
:10008000BB0D0008BB0D0008BB0D0008BB0D000830
:10009000BB0D0008BB0D0008BB0D0008BB0D000820
:1000A000BB0D0008BB0D0008BB0D0008BB0D000810
:1000B000BB0D0008BB0D0008BB0D0008BB0D000800
:1000C000BB0D0008BB0D0008BB0D0008BB0D0008F0
:1000D000BB0D0008650D0008090D0008BB0D0008E8
:1000E000BB0D0008BB0D0008BB0D0008BB0D0008D0
:1000F000BB0D0008BB0D0008BB0D0008BB0D0008C0
:10010000BB0D0008BB0D0008AD060008BB0D0008C4
:10011000BB0D0008BB0D0008BB0D0008BB0D00089F
:10012000BB0D0008BB0D0008BB0D0008BB0D00088F
:10013000BB0D0008BB0D0008BB0D0008BB0D00087F
:10014000BB0D0008BB0D0008BB0D0008BB0D00086F
:10015000BB0D0008BB0D0008BB0D0008BB0D00085F
:10016000BB0D0008BB0D0008BB0D0008BB0D00084F
:10017000BB0D0008BB0D0008BB0D0008BB0D00083F
:10018000BB0D0008BB0D0008DFF810D005F0B2FB76
:10019000004800475F030008AFF3008038AD01203E
:1001A0002A4B19680868B0E8F04F80F30988BFF35C
:1001B0006F8F4FF0000080F311887047000000003F
:1001C00006480068006880F3088862B661B6BFF32D
:1001D0004F8FBFF36F8F00DF00BF00BF08ED00E05F
:1001E000DFF80C00016841F470010160704700BF46
:1001F00088ED00E0EFF30980BFF36F8F134B1A68AF
:100200001EF0100F08BF20ED108A20E9F04F10609B
:1002100008B44FF0500080F31188BFF34F8FBFF345
:100220006F8F03F0C1FD4FF0000080F3118808BC10
:1002300019680868B0E8F04F1EF0100F08BFB0EC66
:10024000108A80F30988BFF36F8F7047AC000020DD
:10025000EFF30580704700007047704770477047A4
:1002600070475A4C4FF4FA7507E0012100E0002175
:10027000C4F8A412284603F0C3FCD4F8A412002941
:10028000F5D1F2E770477CB504F064FF0022042149
:10029000012002F0BDFC4E4C2062201D0221CDE960
:1002A0000010002380224BA1AFF2270003F0B9FA1F
:1002B000032104F10800CDE900100023802248A1A9
:1002C000AFF2610003F0ADFA042104F10C00CDE9B6
:1002D00000100023CA0145A1AFF27B0003F0A1FA90
:1002E000052504F11000CDE900500023802243A130
:1002F000AFF2950003F095FA04F11400CDE9005037
:100300000023802241A1AFF2AB0003F08AFA04F18E
:100310001800CDE90050002380223FA1AFF2C500B4
:1003200003F07FFA062104F11C00CDE90010002340
:1003300080223EA1AFF2DF0003F073FAE06903F020
:100340005FFD206903F05CFD3BA13E4800F0BCFC72
:10035000206803F0AFFABDE87C4004F015BF7CB51F
:10036000A82000F03FFB4FF4A06000F02BFD4FF4FD
:10037000E134204600F098FB204600F039FC00F004
:1003800043F900F0D1F9002002F0C8FA012002F090
:10039000C5FA022002F0C2FA2BA12A4800F094FC10
:1003A0002E4D01242C60FA2000F04DFB0020286027
:1003B00007480023CDE90040802229A1AFF239107F
:1003C00003F02FFA03F03EFE00207CBD0080424285
:1003D00000000020746F7563685F7461736B0000C8
:1003E0006C6564305F7461736B000000656D7769E4
:1003F0006E64656D6F5F7461736B0000636F6C6C2E
:100400006563745F7461736B000000006E65745FF8
:100410007461736B000000006D696E6F72636F6EC4
:1004200074726F6C5F7461736B0000006261636B68
:100430005F7461736B000000205461736B204F4B3D
:100440000D0A00000010014020486172647761725B
:100450006520696E6974204F4B0D0A00A0824242EC
:1004600073746172745F7461736B00007047FEE7B0
:10047000FEE7FEE7FEE770470CB50022019200920E
:100480005849086840F4803008604FF4A043086879
:1004900000F4003000900198401C0190009810B9C1
:1004A00001989842F3D10868800302D5012000909A
:1004B00000E000920098012831D14A48403002689B
:1004C00042F0805202604848026842F440420260B2
:1004D0004448083002680260026842F40042026048
:1004E000026842F4A0520260021F404B13600A6887
:1004F00042F080720A600A689201FCD53C4A40F2E0
:1005000005711160016821F003010160016841F08B
:10051000020101600168C1F381010229FAD10CBD19
:1005200010B53448016841F4700101602D4801683C
:1005300041F0010101602B4A00210832116002687C
:100540002D4B1A400260031D2C4A1A60026822F4E7
:100550008022026023480C300160FFF78DFF25499F
:100560004FF000608039086010BD70B51D4E083630
:10057000306800F00C00224B224900280FD05D109B
:1005800004280ED008280ED00B6030681D4AC0F336
:100590000310121D105C0A68C2400A6070BD0B6037
:1005A000F3E70D60F1E70F4A121D1068C0F38054A5
:1005B000106800F03F0034B1B5FBF0F01368C3F3EE
:1005C0008813584305E0B3FBF0F01368C3F38813B6
:1005D00058431268C2F30142521C5200B0FBF2F0C1
:1005E0000860D2E70038024000700040085440071D
:1005F000003C024088ED00E0FFFFF6FE10300024D2
:100600000024F400240000207CB50121202001F00A
:100610001EF94FF4C064009401208DF804000020FE
:100620008DF806008DF8070003208DF80500054DB4
:100630006946284600F0F8FE2146284600F05CFF97
:100640007CBD0000001402407FB504460D46012128
:10065000082001F020F90294ADF804500024ADF810
:100660000640ADF80C40294D01A9284601F0A6FA34
:1006700001221146284601F074FE0121284601F0AE
:100680001BFB32208DF8000001208DF801008DF851
:1006900002408DF80300684600F099FB7FBD1C48BE
:1006A00000220260426053213120CDE770B5174C23
:1006B0000121204601F06BFE012820D11448026878
:1006C0004168521C41F1000102604160114A124E22
:1006D000124992ED000A012010EE105A0023B54293
:1006E00001DA087000E00B7092ED010A0C4D10EE7B
:1006F000102A0C49AA4201DD087000E00B70204668
:10070000BDE87040012101F04EBE0000000C004029
:10071000380000204000002000007A4449000020FA
:100720000000FA44480000202DE9F04198B0012172
:10073000782001F08CF84FF63370169002208DF877
:100740005C0003208DF85D0000248DF85E400120E0
:100750008DF85F009A4D16A9284600F065FE4FF609
:1007600083711691974E16A9304600F05DFE4FF248
:100770003F011691944F16A9384600F055FE40F2FD
:100780003F411691DFF8448216A9404600F04CFE26
:100790000C220021284600F0BFFE0C220121284631
:1007A00000F0BAFE0C220421284600F0B5FE0C220F
:1007B0000521284600F0B0FE0C220821284600F052
:1007C000ABFE0C220921284600F0A6FE0C220A21CD
:1007D000284600F0A1FE0C220B21284600F09CFECA
:1007E0000C221146284600F097FE0C220D212846C7
:1007F00000F092FE0C220E21284600F08DFE0C2205
:100800000F21284600F088FE0C220021304600F01F
:1008100083FE0C220121304600F07EFE0C220721CF
:10082000304600F079FE0C220821304600F074FEBC
:100830000C220921304600F06FFE0C220A213046BE
:1008400000F06AFE0C220B21304600F065FE0C22FF
:100850001146304600F060FE0C220D21304600F0BB
:100860005BFE0C220E21304600F056FE0C220F21BA
:10087000304600F051FE0C220021384600F04CFEBC
:100880000C220121384600F047FE0C220221384696
:1008900000F042FE0C220321384600F03DFE0C22FF
:1008A0000421384600F038FE0C220521384600F0BD
:1008B00033FE0C221146384600F02EFE0C220D218C
:1008C000384600F029FE0C220E21384600F024FEA6
:1008D0000C220F21384600F01FFE0C22002140465A
:1008E00000F01AFE0C220121404600F015FE0C22F9
:1008F0000221404600F010FE0C220321404600F089
:100900000BFE0C220421404600F006FE0C220521BD
:10091000404600F001FE0C220A21404600F0FCFD9A
:100920000094019409200290039404940594069481
:10093000042007900894099410200A900B940C94BA
:100940000D940E940F94000210901194129413942D
:100950006846CDF850D0159007A800F0A9FA0121FB
:10096000042000F01FFB18B0BDE8F08110B5002A8C
:1009700008D04FF0D04310F8014B5C54491C521E74
:10098000002AF6D110BD002A08D04FF0D0435B5C9E
:1009900000F8013B491C521E002AF6D1704703B5EE
:1009A0000146012201A8FFF7E1FF0CBD08B5014691
:1009B00001226846FFF7E7FF9DF8000008BD000030
:1009C000000C0240001002400014024000180240D7
:1009D00010B503F093FD012803D0BDE8104004F0EA
:1009E000E6BB10BD10B50446042000F034FA2948D7
:1009F00004704FF47A714C43012141804FF0E021A3
:100A0000086940F0020008614C61086940F001008B
:100A1000086110BD70B500214FF0E0256C691D4ADA
:100A200012785043AB69AA699A42FCD003D2A3EB77
:100A30000203194403E0A4EB0206334419441346AD
:100A40008142F0D370BD70B5044603F057FD012814
:100A50000CD0104D6888844203D3B4FBF0F003F04F
:100A6000CFF86888B4FBF0F100FB11444FF47A70C2
:100A70006043BDE87040CDE770B5054600244FF4F3
:100A80007A7603E03046FFF7C5FF641CAC42F9D329
:100A900070BD00006C0000207047BA490A885206F9
:100AA000FCD5C2B28A8070472DE9F04188B0064675
:100AB0000121084600F0CBFE0121102000F0F7FED6
:100AC000DFF8C48207220921404600F025FD0722F5
:100AD0000A21404600F020FD4FF4C0600690022538
:100AE0008DF81C508DF81D5000248DF81E400127F4
:100AF0008DF81F7006A9404600F096FC0296ADF8EE
:100B00000C40ADF80E40ADF81040ADF814400C208C
:100B1000ADF812009B4E02A9304601F065FD01219F
:100B2000304601F0DAFD012240F22551304601F055
:100B300087FE25208DF804008DF805408DF80650BD
:100B40008DF8077001A800F042F908B0BDE8F08107
:100B50002DE9F04188B080460121084600F077FE7B
:100B60000121480400F0A3FE874F072202213846E6
:100B700000F0D2FC07220321384600F0CDFC0C2601
:100B8000069602218DF81C108DF81D1000248DF89A
:100B90001E4001258DF81F5006A9384600F044FC80
:100BA000CDF80880ADF80C40ADF80E40ADF810401F
:100BB000ADF81440ADF81260744E02A9304601F051
:100BC00013FD0121304601F088FD012240F225513C
:100BD000304601F035FE26208DF804008DF80540E2
:100BE0008DF806508DF8075001A800F0F0F8ACE73A
:100BF0002DE9F04188B005460121022000F027FED2
:100C00000121880400F047FE614F384601F07CFC6A
:100C1000DFF8808107220A21404600F07DFC072290
:100C20000B21404600F078FC4FF440600690022013
:100C30008DF81C008DF81D0000248DF81E40012643
:100C40008DF81F6006A9404600F0EEFB0295ADF856
:100C50000C40ADF80E40ADF81040ADF814400C203B
:100C6000ADF8120002A9384601F0BEFC0121384659
:100C700001F033FD012240F22551384601F0E0FD3C
:100C800027208DF804008DF805408DF806408DF87A
:100C9000076001A800F09BF857E72DE9F0410746EF
:100CA0000D46164600240CE015F8011B384601F0ED
:100CB00040FD4021384601F0DEFD0028F9D0641CDB
:100CC000A4B2B442F0D341E70FB430B5CBB005467F
:100CD00001AC50AB4FF4947101A84F9A04F0CEFED2
:100CE0000020009009E0641C284601F022FD40210C
:100CF000284601F0C0FD0028F9D021780029F2D162
:100D00004BB030BC5DF814FB70B51E4C40F2255161
:100D1000204601F0BBFD00280ED0204601F00DFD5D
:100D2000C1B21D4A1088030406D444044FF00003E6
:100D300007D50A2901D0138070BD40F4004010800F
:100D400070BD0D290AD0154DC0F30D042955401C66
:100D500080B21080C728F3D9138070BD40F4804062
:100D6000108070BD10B5074C40F22551204601F0AF
:100D70008DFD002805D02046BDE81040202101F05F
:100D800081BD10BD00100140000002400044004041
:100D900000480040000402407000002020010020B4
:100DA0000648804706480047FEE7FEE7FEE7FEE705
:100DB000FEE7FEE7FEE7FEE7FEE7FEE721050008A7
:100DC000890100082B4908432B490860704730B55A
:100DD0000F23C27801250178002A1FD0264A126805
:100DE00002F4E062C2F5E062C2F30722C2F1040439
:100DF000D3404278A24084781C401443220101F180
:100E0000E02181F80024007800F01F018D404009A6
:100E1000800000F1E020C0F8005130BD01F01F005B
:100E200085404809800000F1E020C0F8805130BDC5
:100E3000124A114001431048001F016070470E4ADA
:100E4000121D002903D01168014311607047116819
:100E50008143116070474FF0E021042804D00869F5
:100E600020F0040008617047086940F00400086140
:100E7000704700000000FA050CED00E080FFFF1F46
:100E80008100A1F1C04100280CD043F2D2020A60D7
:100E9000401C8000A0F1C0406FF070420260C1F8B9
:100EA000042170474FF0204343F2DB021A60EFE762
:100EB00010B5D0E901121143D0E903231A431143BD
:100EC0004269114382691143C2691143026A1143A5
:100ED000426A1143826A1143C26A1143026B114391
:100EE00002689200A2F1C04211608168082907D10E
:100EF00001688900A1F1C0410A6842F040020A601D
:100F0000416BD1E9002342EA03128B688C891B02F2
:100F100043EA04431A430B8A42EA03520B7D896970
:100F200042EA03620A430168491C8900A1F1C041F9
:100F30000A60C16AB1F5804F08D000686FF0704157
:100F40008000A0F1C040C0F8041110BD816BD1E950
:100F5000002342EA03128B680C8A1B0243EA045303
:100F60001A430B7D896942EA036200680A438000E4
:100F7000A0F1C040C0F8042110BD00210160022290
:100F800042608160C160016141618161C161016252
:100F9000D202426252008262C1620163D54941635A
:100FA000816370478000A0F1C040002904D001682F
:100FB00041F00101016070470168CF4A11400160B2
:100FC000704710B5182440234FF020414FF0FC32F9
:100FD000102805D041F8804F4B608A60CA6010BD70
:100FE0000C664B668A66CA6610BD30B5D0E9011240
:100FF0001143D0E903231A431143426941EA4221D4
:10100000826941EA423141F00804C169D1E9002313
:1010100042EA03220B89097B1B0443EA01610A436C
:10102000016AD1E9003543EA05230D89097B2D04C6
:1010300045EA01610B4301684FF02040102904D0BC
:1010400040F8804F8260C36030BD04668266C3662C
:1010500030BD10210160002141608160C1600161EB
:1010600041618161C269FC211160C2695160C2693C
:101070009160C269D160026A1160026A5160026ABD
:101080009160006AC16070474FF0204200290CD087
:10109000102805D052F8800F40F00400106070470F
:1010A000106E40F00400106670479349C91E102866
:1010B00004D052F8800F084010607047106E08404E
:1010C000106670474FF0204200290CD0102805D040
:1010D00052F8800F40F0400010607047106E40F0F2
:1010E00040001066704784493F39102804D052F8F8
:1010F000800F084010607047106E084010667047FF
:101100004FF02041102802D0D1F894007047486F6A
:1011100070477A4818210160002141604FF0FC318E
:101120008160C1600161704710B5D0E9001241EAE9
:1011300042218268102343EA423211436F4A116010
:10114000C168D1E9003443EA04230C89097B2404F3
:1011500044EA01610B4393600169D1E9003443EA39
:1011600004230C89097B240444EA01610B43D36006
:101170004069D0E9001341EA03210389007B1B0485
:1011800043EA00600143116110BD0021016041602C
:101190008160C268FC211160C2685160C2689160C0
:1011A000C268D16002691160026951600269916090
:1011B0000269D1604269116042695160426991607F
:1011C0004069C16070474FF02041002805D051F8B8
:1011D000A00F40F004000860704751F8A00F464A85
:1011E000D21E10400860704710B54FF480744FF065
:1011F0002043002A11D0102806D0A04208D153F86D
:10120000840F0843186010BD586E0843586610BD1F
:1012100053F8A40F0843186010BD102806D0A04250
:1012200008D153F8840F8843186010BD586E884366
:10123000586610BD53F8A40F8843186010BD0346CC
:1012400000204FF02042102B08D0B3F5807F07D04C
:10125000D2F8A4200A4200D001207047526EF9E76C
:10126000D2F88420F6E74FF02042102807D0B0F5DE
:10127000807F08D052F8A40F884310607047506EEA
:1012800088435066704752F8840F88431060704757
:10129000034600204FF02042102B0ED0B3F5807F84
:1012A0000DD0D2F8A42002EA010302EAD101002BFA
:1012B00002D0002900D001207047526EF3E7D2F827
:1012C0008420F0E74FF02042102808D0B0F5807F4E
:1012D0000AD052F8A40F20EAD10010607047506E77
:1012E00020EAD1005066704752F8840F20EAD100FE
:1012F0001060704734650008FEFF0F00A00000A0DA
:1013000010B58D49884209D10121084600F0DBFA69
:101310000021BDE81040012000F0D5BA874988427D
:1013200009D10121022000F0CEFA0021BDE81040D1
:10133000022000F0C8BA8249884209D10121042064
:1013400000F0C1FA0021BDE81040042000F0BBBA53
:101350007C49884209D10121082000F0B4FA00211B
:10136000BDE81040082000F0AEBA7749884209D1A4
:101370000121102000F0A7FA0021BDE81040102044
:1013800000F0A1BA7149884209D10121202000F062
:101390009AFA0021BDE81040202000F094BA6C4970
:1013A000884209D10121402000F08DFA0021BDE8DA
:1013B0001040402000F087BA6649884209D10121D7
:1013C000802000F080FA0021BDE81040802000F06D
:1013D0007ABA614988420AD184150121204600F079
:1013E00072FA2046BDE81040002100F06CBA5B495B
:1013F00088420AD144150121204600F064FA2046B3
:10140000BDE81040002100F05EBA554988420AD17B
:1014100004150121204600F056FA2046BDE8104090
:10142000002100F050BA10BD2DE9F0410022012743
:101430004FF0030C07FA02F50B682B40AB422CD19E
:10144000066853000CFA03F4A64306600E79D0F840
:1014500000809E4046EA080606600E79012E01D003
:10146000022E12D18668A64386604E79D0F8088095
:101470009E4046EA080686604668AE434660456878
:101480008E799640B6B235434560C568A543C560C0
:10149000CC799C40C3681C43C460521C102AC9D339
:1014A000BDE8F0814FF6FF710160002101714171CB
:1014B0008171C171704708B541F480320092009A81
:1014C000C261C1610099C161C169C069009008BD74
:1014D0000246002012690A4200D0012070470069CC
:1014E00080B270470246002052690A4200D00120B3
:1014F0007047406980B270470183704741837047ED
:10150000002A01D0018370474183704741617047D1
:1015100042694A404261704710B54B07DB0E9A4062
:10152000C90800EB8100016A0F249C40A1430162BD
:10153000016A1143016210BD000002400004024034
:1015400000080240000C024000100240001402405B
:1015500000180240001C024000200240002402400B
:1015600000280240FA48016841F001010160F84A90
:101570000021083211600268F64B1A400260031D18
:10158000F54A1A60F24BF54A84331A60F24A103A6F
:101590001B1D1A60026822F480220260EC480C30A5
:1015A0000160181D01607047E9490022891C0A701A
:1015B0000870704702460020510901290CD0022909
:1015C0000DD0E3497431096802F01F0201239340F2
:1015D0000B4200D001207047DD490968F4E7DC497F
:1015E00070310968F0E718B5002000904FF4A0446E
:1015F0003120FFF7DFFF0099491C00910099A142BB
:1016000001D00028F4D03120FFF7D4FF08B1012029
:1016100018BD002018BDCE4A116821F0F80141EA3A
:10162000C00010607047CE4908607047C84900226A
:1016300070310A700A70012804D0042801D10520F5
:1016400008707047012008707047C64908607047ED
:1016500010B5029C41EA82114FF0FF3202EB5302B7
:1016600041EA0241014341EA0460B949091D0860A9
:1016700010BDBB4908667047800140EA0170B4495B
:10168000843108607047B64988667047800140EA37
:101690000160AF4940EA0270883108607047B04984
:1016A00008677047AE49C8647047A94B08331A6889
:1016B00022F0EC620843104318607047A44B0833D3
:1016C0001A6822F078420843104318607047A04A15
:1016D0000832116821F003010143116070479C48F2
:1016E0000830006800F00C007047994A0832116811
:1016F00021F0F001014311607047954A08321168EA
:1017000021F4E051014311607047914A0832116899
:1017100021F4604141EAC0001060704770B58C4B05
:101720000833196801F00C018F4C00291ED0661097
:1017300004291DD008291DD00460196801F0F001AA
:1017400009098A4A545C0168E14041601C6804F45C
:10175000E054A40A145D21FA04F484601B6803F4C5
:1017600060435B0BD25CD140C16070BD0460E4E7B4
:101770000660E2E7764A121D1168C1F380551168D0
:1017800001F03F0135B1B6FBF1F11468C4F38814E0
:10179000614305E0B4FBF1F11468C4F388146143BC
:1017A0001268C2F30142521C5200B1FBF2F1016017
:1017B000C3E7C0F30121032908D1654B0833196839
:1017C00021F4F8126A49014011431960604A7032ED
:1017D0001168C0F30B00014311607047614944393F
:1017E000086070475F494039086070476149086088
:1017F0007047574A8C32116821F01F01401E014387
:1018000011607047524A8C32116821F4F851401E21
:1018100041EA0020106070474D4A8C32116821F473
:101820004011014311607047494A8C32116821F41C
:101830004001014311607047454A8C32116821F420
:1018400040310143116070474B4908607047404A7E
:101850003032002903D011680143116070471168CC
:101860008143116070473A4A3432002903D011682D
:101870000143116070471168814311607047344A19
:101880003832002903D01168014311607047116894
:101890008143116070472E4A4032002903D01168FD
:1018A0000143116070471168814311607047284AF5
:1018B0004432002903D01168014311607047116858
:1018C000814311607047224A1032002903D0116809
:1018D00001431160704711688143116070471C4AD1
:1018E0001432002903D01168014311607047116858
:1018F000814311607047164A1832002903D01168DD
:101900000143116070471168814311607047104AAC
:101910002032002903D0116801431160704711681B
:101920008143116070470A4A2432002903D01168AC
:101930000143116070471168814311607047044A88
:10194000503200291AD0116801431160704700001D
:1019500000380240FFFFF6EA10300024003000207B
:1019600000004742800E47420024F4007800002027
:10197000FFFCFF0F5C014742E011474211688143C1
:101980001160E3E72E4A002903D01168014311607A
:10199000DCE7116881431160D8E7294A121D00294C
:1019A00003D0116801431160D0E7116881431160D1
:1019B000CCE7234A0C32002903D01168014311609F
:1019C000C4E7116881431160C0E71D4A1032002945
:1019D00003D0116801431160B8E7116881431160B9
:1019E000B4E717491C31012804D0086820F008002A
:1019F0000860ABE7086840F008000860A6E7104AF6
:101A0000473A002903D01178014311709EE71178FD
:101A1000814311709AE70A482030016841F08071D3
:101A2000016093E701460020054A483A12680A42DD
:101A30008CD001208AE702494639087086E7000009
:101A40005438024010B5F949884209D101210846AD
:101A5000FFF769FF0021BDE810400120FFF763BFD9
:101A6000B0F1804F0CD0F249884213D101210220FD
:101A7000FFF74DFF0021BDE810400220FFF747BFF0
:101A800001210846FFF743FF0021BDE81040012077
:101A9000FFF73DBFE749884209D101210420FFF744
:101AA00036FF0021BDE810400420FFF730BFE249B7
:101AB000884209D101210820FFF729FF0021BDE854
:101AC00010400820FFF723BFDC49884209D10121DB
:101AD0001020FFF71CFF0021BDE810401020FFF789
:101AE00016BFD749884209D101212020FFF70FFFF7
:101AF0000021BDE810402020FFF709BFD1498842EE
:101B000009D101210220FFF70EFF0021BDE810409E
:101B10000220FFF708BFCC4988420AD101210C04FA
:101B20002046FFF700FF2046BDE810400021FFF7E8
:101B3000FABEC64988420AD101214C042046FFF76B
:101B4000F2FE2046BDE810400021FFF7ECBEC04980
:101B500088420AD101218C042046FFF7E4FE20468A
:101B6000BDE810400021FFF7DEBEBA49884209D126
:101B700001214020FFF7CBFE0021BDE810404020AE
:101B8000FFF7C5BEB449884209D101218020FFF783
:101B9000BEFE0021BDE810408020FFF7B8BEAF496F
:101BA00088420AD1841501212046FFF7B0FE204665
:101BB000BDE810400021FFF7AABE10BD30B5028875
:101BC0009A4CA04DA0420DD0A8420BD0B0F1804F4E
:101BD00008D0974B984205D0964B984202D0964B2E
:101BE000984203D122F070034A881A43934B9842DB
:101BF00006D0934B984203D022F440730A891A43CB
:101C000002804A68C2620A880285A04201D0A842C6
:101C100001D1897A01860121818230BD4FF0FF31E7
:101C200041600021018001814180817270470185FE
:101C300082827047028822F070020A430280704755
:101C400041627047C1627047406A7047008D7047BB
:101C5000002904D0018841F0020101807047018809
:101C600021F0020101807047002904D0018841F071
:101C7000040101807047018821F004010180704750
:101C8000002904D0018841F080010180704701885B
:101C900021F0800101807047028822F00802028052
:101CA00002880A4302807047028822F44072028050
:101CB00002880A4302807047002904D0018841F05D
:101CC000010101807047018821F001010180704706
:101CD00030B5028C22F001020284058C8388028BCD
:101CE00022F0700222F003020C88144325F0020255
:101CF0008D8915434A882A434C4DA84202D0514D44
:101D0000A8420FD122F00805CA892A4322F004050F
:101D10008A882A4323F4807323F400730D8A1D43B9
:101D20004B8A2B438380048389684163028430BDDE
:101D300070B5028C22F010020284028C8388048B1E
:101D400024F4E04424F440760D884FF6FF7404EA4E
:101D50000525354322F020028E8904EA0616164333
:101D60004A8804EA02123243304EB04202D0354E65
:101D7000B04217D122F08002CE8904EA061616433B
:101D800026F040068A8804EA0212324323F4806374
:101D900023F400630E8A04EA86061E434B8A04EA93
:101DA000830333438380058389688163028470BD24
:101DB00070B5028C22F480720284028C8388848B3A
:101DC00024F0700424F003040D88254322F40072EB
:101DD0008E894FF6FF7404EA062616434A8804EA01
:101DE00002223243114EB04202D0164EB04217D1F9
:101DF00022F40066CA8904EA0222324322F4806691
:101E00008A8804EA0222324323F4805323F40053E5
:101E10000E8A04EA06161E434B8A04EA0313334370
:101E2000838085838968C163028470BD000001409E
:101E30000004004000080040000C0040001000407A
:101E400000140040000401400040014000440140F3
:101E50000048014000180040001C004000200040E5
:101E600070B5028C22F480520284058C8288838BA8
:101E700023F4E04323F440760C884FF6FF7303EA23
:101E80000424344325F400558E8903EA06362E4394
:101E90004D8803EA05353543FE4EB04202D0FE4E72
:101EA000B04205D122F480460A8A03EA8212324304
:101EB00082808483896801640584B6E700210180FB
:101EC0004180818081608181C1810182418270472E
:101ED00030B500F1180301248C40058CA54305841E
:101EE000002912D0082910D0091FC1F34E00184450
:101EF000016848F6FF731940016001684FF6FF73EF
:101F000003EA02221143016030BD03EB5100016876
:101F10004FF68F731940016001681143016030BDB5
:101F20004163704781637047C163704701647047C4
:101F3000028B22F070020A4302837047028B22F464
:101F4000E0424FF6FF7303EA01211143018370471A
:101F5000828B22F070020A4382837047828B22F4C4
:101F6000E0424FF6FF7303EA01211143818370477A
:101F7000028B22F008020A4302837047028B22F48C
:101F800000624FF6FF7303EA01211143018370479A
:101F9000828B22F008020A4382837047828B22F4EC
:101FA00000624FF6FF7303EA0121114381837047FA
:101FB000028B22F004020A4302837047028B22F450
:101FC00080624FF6FF7303EA0121114301837047DA
:101FD000828B22F004020A4382837047828B22F4B0
:101FE00080624FF6FF7303EA01211143818370473A
:101FF000028B22F080020A4302837047028BC2F3F5
:102000000E024FF6FF7303EA01211143018370476B
:10201000828B22F080020A4382837047828BC2F354
:102020000E024FF6FF7303EA0121114381837047CB
:10203000028C22F002020A4302847047028C22F0D2
:1020400008020A4302847047028C22F020024FF6F5
:10205000FF7303EA0111114301847047028C22F0DF
:1020600080024FF6FF7303EA0111114301847047A8
:10207000028C22F400724FF6FF7303EA0121114330
:1020800001847047028C22F400624FF6FF7303EA6A
:102090000121114301847047028C22F400524FF653
:1020A000FF7303EA013111430184704710B5012326
:1020B0008B40048C9C430484038C8A401343038428
:1020C00010BD10B504238B40048C9C430484038C06
:1020D0008A401343038410BD828B22F440628283C2
:1020E000828B4FF6FF7303EA01210A438283704714
:1020F00070B5048C24F480540484858B068C4FF6D0
:10210000FF7404EA013125F4734504EA02222A43EC
:1021100004EA0333134326F420420A4342F4805175
:102120008383018481E6828B22F00C028283828B7E
:102130000A4382837047F0B5048C24F480740484CD
:10214000868B058C4FF6FF7707EA012426F0F3060D
:1021500007EA03111143314325F42062224342F47C
:10216000807281830284F0BD028B22F4406202837C
:10217000028B4FF6FF7303EA01210A430283704783
:1021800070B5048C24F010040484058B068C4FF683
:10219000FF7404EA011125F4734504EA03332B4369
:1021A00004EA02221A4326F0A0030B4343F0100175
:1021B0000283018439E6028B22F00C020283028B37
:1021C0000A430283704770B5048C24F00104048430
:1021D000058B048C25F0F3054FF6FF7606EA031312
:1021E00013432B4324F00A020A4342F00101038304
:1021F00001841AE670B506460C4625886188A288D7
:102200002389002D0BD0042D11D0082D17D0304676
:10221000FFF76EFFE1883046BDE870405CE730466E
:10222000FFF7D1FFE1883046BDE87040C3E7304694
:10223000FFF7A6FFE1883046BDE8704094E73046DE
:10224000FFF779FFE1883046BDE870406BE7002179
:102250000180418001228280C180018170472DE987
:10226000F04107460C46002501266188002900D16F
:102270000225A288012A00D1022620882389B0B134
:102280003846FFF77DFFE1883846FFF76DFF238969
:10229000324603E000000140000401402946384670
:1022A000FFF791FFE1883846BDE8F04183E7384603
:1022B000FFF789FFE1883846FFF77DFF2389324623
:1022C00029463846FFF75CFFE1883846BDE8F04113
:1022D0004AE7406B7047806B7047C06B7047006C7B
:1022E000704710B50A884B88CC881A438B882343E3
:1022F0001A430B891A434B8989891A430A43A0F868
:10230000442010BD0021018041808180C180018175
:10231000418181817047002905D030F8441F41F484
:1023200000410180704730F8441FC1F30E01018065
:102330007047002904D0818841F0040181807047F2
:10234000818821F0040181807047002904D08188B0
:1023500041F0010181807047818821F00101818075
:102360007047002A03D082890A438281704782899C
:102370008A43828170478182704702460020128A18
:102380000A4200D001207047C943018270470246CB
:102390000020138A0B4092890A40002B02D0002AA9
:1023A00000D001207047C943018270471143A0F853
:1023B00048107047002A03D082890A4382817047FF
:1023C00082898A4382817047002904D0818841F044
:1023D000080181807047818821F008018180704761
:1023E000018921F0070101817047028922F0700202
:1023F0000A430281704700B503461846FFF7F5FF10
:10240000188940F00700188100BD70B50D460446DC
:102410001146602D0CD001222046FFF7D4FE29463C
:102420002046FFF7E2FF208940F007002081FCE40E
:1024300001222046FFF7A4FEF1E730B50489E4B29B
:102440004FF6FF7505EA032313430B432343038130
:1024500030BD10B504462046FFF7EFFF208920F07D
:10246000070040F0070020F0700040F0700020816D
:1024700010BD10B504462046FFF7DFFF208940F469
:102480008040208110BD828822F070028280828884
:102490000A4382807047028922F007020281028982
:1024A0000A4302817047028922F080020281028978
:1024B0000A430281704770B50589048B068C25F0AC
:1024C00007050D434FF6FC410C4040F201110C434F
:1024D00026F022064FF6FF7101EA03111143314342
:1024E000058104830184A0E4002904D0818841F09F
:1024F000800181807047818821F080018180704750
:10250000A0F850107047000010B5F449884209D176
:1025100001211020FFF707FA0021BDE8104010202C
:10252000FFF701BAEE4988420AD101214C04204646
:10253000FFF7EDF92046BDE810400021FFF7E7B9AD
:10254000E84988420AD101218C042046FFF7DFF9CF
:102550002046BDE810400021FFF7D9B9E249884282
:102560000AD10121CC042046FFF7D1F92046BDE86D
:1025700010400021FFF7CBB9DC4988420AD1012184
:102580000C052046FFF7C3F92046BDE810400021A6
:10259000FFF7BDB9D649884209D101212020FFF7B4
:1025A000C2F90021BDE810402020FFF7BCB9D14995
:1025B00088420AD101218C072046FFF7A8F920465E
:1025C000BDE810400021FFF7A2B9CB4988420AD1EB
:1025D000440501212046FFF79AF92046BDE8104046
:1025E0000021FFF794B910BD7FB504460D46208A3F
:1025F00020F44051E88808432082A08941F20C6110
:102600008843A9882A8911436A8902431143A18119
:10261000A08A20F44071A8890843A0826846FFF789
:102620007DF8AE48844202D0B148844201D103987B
:1026300000E00298A189090408D500EBC00101EB74
:10264000001029684900B0FBF1F007E000EBC00181
:1026500001EB001029688900B0FBF1F06422B0FBA7
:10266000F2F109010B096FF018056B4300EB8300D1
:10267000A3891D044FF0320307D503EBC000B0FB64
:10268000F2F000F00700084306E003EB0010B0FB97
:10269000F2F000F00F00084320817FBD4FF4165187
:1026A000016000218180C18001810C2242818181F1
:1026B000704710B5028A22F470630A884C8822435E
:1026C0008C88C9880C4322431A43028210BD002122
:1026D000018041808180C1807047002904D08189B8
:1026E00041F4005181817047818921F40051818139
:1026F0007047028B02F47F420283028B0A430283FB
:102700007047002904D0818941F4004181817047DC
:102710008189C1F30E0181817047002904D0818A2B
:1027200041F4006181827047818A21F400618182D5
:102730007047C1F30801818070478088C0F30800AA
:102740007047028A22F00F020282028A0A43028242
:102750007047002904D0818941F0020181817047CE
:10276000818921F0020181817047828922F400620F
:10277000828182890A4382817047028A22F0200284
:102780000282028A0A4302827047002904D0018A29
:1027900041F4804101827047018A21F48041018225
:1027A0007047818941F0010181817047002904D07F
:1027B000818A41F0080181827047818A21F00801F5
:1027C00081827047028BD2B20283028B42EA0121DE
:1027D00001837047002904D0818A41F02001818261
:1027E0007047818A21F0200181827047002904D03E
:1027F000818A41F0100181827047818A21F01001A5
:1028000081827047828A22F004028282828A0A438D
:1028100082827047002904D0818A41F002018182BE
:102820007047818A21F0020181827047002A03D01B
:10283000828A0A4382827047828A8A4382827047F0
:1028400010B540F66A13C1F3421301F01F040121D1
:10285000A140012B07D0022B07D014303AB10268F7
:102860000A43026010BD0C30F8E71030F6E702684A
:102870008A43026010BD0246002012880A4200D03E
:10288000012070478A05C9430180704770B5002454
:1028900040F66A12C1F3421301F01F05012606FA41
:1028A00005F2012B0CD0022B0DD0838A1340090AAC
:1028B0008E40008830400BB100B10124204670BD2D
:1028C00083891340F3E7038A1340F0E740F66A1266
:1028D0000A0A01219140C94301807047001001405C
:1028E0000044004000480040004C004000500040C0
:1028F0000014014000780040007C004003E011F823
:10290000013B00F8013B521E531CF8D1704701E017
:1029100000F8011B521E531CFAD1704770B50446D3
:102920006D486E4E002150F8240006EB84054200ED
:102930006869FFF7ECFF68480021183050F8242040
:10294000A868FFF7E4FF0120311981F8200070BD6D
:1029500010B500220021604B604C53F8203004EB8E
:10296000800005E0446934F8114004B1521C491C50
:102970008B42F7D864204243B2FBF3F0C0B210BDE3
:102980002DE9F04105460F460024DFF8508108EBA1
:10299000050090F82000002803D1D8F80010284640
:1029A00088474FF0FF3307B34B4E0C3656F82500DF
:1029B000B7FBF0F18AB2B7FBF0F100FB117008B180
:1029C000521C92B2444850F82510491E002920DBC1
:1029D00008EB8507786930F811C0BCF1000F07D00B
:1029E0000024944212D100230AE01846BDE8F08189
:1029F000641CA4B2F5E77869CC1820F814205B1C9D
:102A00009342F8D356F825004843EFE7491E0029C2
:102A1000E1DA1846EAE770B5304A131893F8203027
:102A2000002B13D02C4B183353F820308B421AD97B
:102A3000294B0C3353F82030B1FBF3F102EB800249
:102A4000506930F811300020002408E011688847F0
:102A5000012070BD55690E1825F81640401C98429B
:102A6000F8DB002070BD022070BD002905D01B4A94
:102A700002EB80029268891ACDE7704710B50446D0
:102A80002046FFF77DFF411C05D0144901EB84016E
:102A90008968084410BD002010BD2DE9F0410646AC
:102AA0008846174639463046FFF76AFF0446601CE1
:102AB0000FD00A483A4600EB86054146A8682044F4
:102AC000FFF71CFF41463046FFF7CFFFA8682044C0
:102AD0008CE700208AE7000050650008880000208D
:102AE00000F1080141604FF0FF328260C160016176
:102AF00000210160704700210161704742684A600F
:102B000093688B6093685960916008610168491C03
:102B10000160704730B50C68621C02D000F10802F9
:102B200002E0026904E01A4653681D68A542FAD91A
:102B300053684B6099608A60516008610168491C64
:102B4000016030BD0169D0E901329A60D0E901230A
:102B50005A604A68824201D182684A60002202615A
:102B60000868401E0860704770B504460D46002C8A
:102B700005D140F21B12F3A1F7A002F05BFF02F0B7
:102B8000E9FAD4E90F20216802FB001161600021FD
:102B9000A1632168A160E06B2268216C401E00FBEC
:102BA0000121E1604FF0FF3084F8440084F84500D3
:102BB00004F110004DB1FFF793FF04F12400FFF77B
:102BC0008FFF02F0E1FA012070BD21690029F8D0E1
:102BD00001F0C7FB0028F4D0E3494FF080500860B3
:102BE000BFF34F8FBFF36F8FEBE770B51D46049CAB
:102BF00000290BD02260E063216401212046FFF709
:102C0000B3FF84F850500020A06470BD2460F2E748
:102C1000F8B505460E461746002D05D14FF4C4728F
:102C2000C8A1CDA002F006FF86B105FB06F0543026
:102C300002F06BFB04463CB104F154023B463146C2
:102C400028460094FFF7D1FF2046F8BD0020EEE7AC
:102C50002DE9F041044617460026A56B226C002A98
:102C600010D0C7B1E06802F011FCE168206C091ACD
:102C7000E1602268914202D26168081AE060022F86
:102C800016D017E02068A8B9606801F082FC0646FB
:102C9000002060600EE0A06802F0F8FB216CA068E4
:102CA0000844A0606168884204D32068A06001E005
:102CB00005B16D1E6D1CA5633046BDE8F0812DE9A0
:102CC000F3410F460098846C0026002C05D140F695
:102CD000CE129CA1A0A002F0ADFEA06BE16B8842D9
:102CE00005D340F6CF1297A19BA002F0A3FEA06BE4
:102CF000E16B88420CD294F945503A466946204629
:102D0000FFF7A6FF0646681C05D06D1C84F84550E9
:102D10003046BDE8FC81606A0028F9D004F1240047
:102D200001F01FFB0028F3D00126F1E72DE9F04167
:102D3000044602F00FFA94F9455004F1240613E01A
:102D4000A06C38B100212046FFF7B9FF50B101F067
:102D5000C4FB07E0606A48B1304601F002FB08B1ED
:102D600001F0BBFB6D1E6DB2002DE9DC4FF0FF36AC
:102D700084F8456002F008FA02F0ECF994F9445046
:102D800004F1100709E0206948B1384601F0E9FA7A
:102D900008B101F0A2FB6D1E6DB2002DF3DC84F8CA
:102DA0004460BDE8F04102F0EFB910B5044602F00E
:102DB000D1F9A06BE16B884201D1012400E000242D
:102DC00002F0E2F9204610BD2DE9FF4782B004462B
:102DD0008A4698460025002C05D140F2D92259A1F7
:102DE0005DA002F027FEBAF1000F07D1206C28B1D8
:102DF00040F2DA2253A158A002F01CFEB8F1020FF3
:102E000008D1E06B012805D040F2DB224DA152A091
:102E100002F010FE01F072FB38B9049828B140F2BC
:102E2000DE2248A14CA002F005FE4FF000094FF051
:102E300080564D4F02F08EF9A06BE16B884206D3AD
:102E4000B8F1020F03D0049860B37DB333E042467B
:102E500051462046FFF7FCFEA16C51B14146204689
:102E6000FFF72DFFC0B13E60BFF34F8FBFF36F8FF1
:102E700012E0616A51B104F1240001F072FA58B114
:102E80003E60BFF34F8FBFF36F8F05E020B13E6010
:102E9000BFF34F8FBFF36F8F02F076F9012006B0BA
:102EA000BDE8F08702F070F90020F8E7FFE7684618
:102EB00001F0C9FA012502F067F900F054FE02F0B2
:102EC00049F994F94400401C01D184F8449094F9E4
:102ED0004500401C01D184F8459002F055F904A941
:102EE000684601F0C2FA30B12046FFF71FFF00F03C
:102EF0008EFD0020D3E72046FFF757FF88B104F18D
:102F00001000049901F0C0F92046FFF70FFF00F010
:102F10007EFD00288ED13E60BFF34F8FBFF36F8FD1
:102F200088E72046FFF702FF00F071FD82E70028E6
:102F30001CD0002141600160C16000231A4619467F
:102F400042E700002E2E5C4672656552544F535C7A
:102F500071756575652E63004572726F723A2573DF
:102F60002C25640D0A00000004ED00E0704710B548
:102F7000024600210120FFF74BFE04462046FFF7E2
:102F8000D6FF204610BD10B50446002C07D140F2F4
:102F90004122AFF25001AFF2400002F04BFD01F0D0
:102FA000AAFA616888420BD1E068401EE06028B947
:102FB00000231A4619462046FFF706FF012010BDE0
:102FC000002010BD10B5044602F0C4F8A06B20B17B
:102FD000002402F0D9F8204610BD0124F9E730B4EE
:102FE0000B46026C002A0CD0C1681144C1604468D1
:102FF000A14201D30168C160C16830BC184602F02B
:1030000045BA30BC70472DE9FF4F83B004468A466D
:103010009B460026002C07D140F2DC42AFF2DC01D7
:10302000AFF2CC0002F006FDBAF1000F09D1206C1E
:1030300038B140F2DD42AFF2F401AFF2E40002F049
:10304000F9FC01F05BFA48B9059838B14FF49C627D
:10305000AFF21011AFF2001002F0ECFC4FF00009DB
:103060004FF08057DFF8548602F074F8A56B95B3E3
:10307000E66851462046FFF7B2FFBBF1000F13D0C0
:10308000E660606A50B104F1240001F06AF928B1E9
:10309000C8F80070BFF34F8FBFF36F8F02F074F862
:1030A000012007B0BDE8F08F6D1EA563206810B940
:1030B00001F027FB606020690028EFD004F11000C8
:1030C00001F04FF90028E9D0C8F80070BFF34F8F26
:1030D000BFF36F8FE2E7FFE7059808B126B107E07D
:1030E00002F052F80020DCE701A801F0ACF901265B
:1030F00002F04AF800F037FD02F02CF894F9440091
:10310000401C01D184F8449094F94500401C01D141
:1031100084F8459002F038F805A901A801F0A5F956
:1031200058B12046FFF702FE00F071FC2046FFF781
:1031300049FF002898D00020B3E72046FFF742FF60
:10314000E0B1206830B902F005F8606801F0E2F9FA
:1031500002F01AF804F12400059901F095F82046D0
:10316000FFF7E4FD00F053FC00287FF47DAFC8F8C2
:103170000070BFF34F8FBFF36F8F75E72046FFF7E7
:10318000D5FD00F044FC6FE770B504460D46002CF9
:1031900007D14FF41E72AFF25421AFF2442002F077
:1031A00049FC01F0A8F96368984204D1E068401C2A
:1031B000E060012070BD00232A4619462046FFF733
:1031C00022FF0028F6D0E168491CE16070BD70B5AF
:1031D00005460C46002D07D140F2BD22AFF29C21DE
:1031E000AFF28C2002F026FCAC4207D940F2BE229E
:1031F000AFF2B021AFF2A02002F01CFC02220021AD
:103200002846FFF705FD002800D0846370BD2DE936
:10321000F0470446894615469846002C07D140F2EF
:103220009F32AFF2E021AFF2D02002F003FCB9F1FF
:10323000000F09D1206C38B14FF46872AFF2FC2155
:10324000AFF2EC2002F0F6FBB8F1020F0AD1E06B0E
:10325000012807D040F2A132AFF21831AFF20830A6
:1032600002F0E8FB01F0B7FF5020EFF3118780F385
:103270001188BFF34F8FBFF36F8FA06BE16B884254
:1032800006D3B8F1020F03D0002087F3118807E6B8
:1032900094F94560424649462046FFF7D9FC701C28
:1032A00004D0761C84F845600120EEE7A06C01266E
:1032B00048B141462046FFF702FD0028F4D0002D1A
:1032C000F2D02E60F0E7606A0028EDD004F124000F
:1032D00001F047F80028E7D0002DE5D02E60E3E7A5
:1032E0002DE9F04104460D46002C07D140F23C4246
:1032F000AFF2B031AFF2A03002F09CFB206C38B1DD
:103300004FF48862AFF2C431AFF2B43002F092FBF6
:10331000206848B9606838B140F24542AFF2DC310C
:10332000AFF2CC3002F086FB01F055FF5020EFF3F6
:10333000118680F31188BFF34F8FBFF36F8FA16B9E
:10334000E06B884224D994F94500491CA163411CD3
:1033500004D0401C84F8450001201AE0A06C01272D
:1033600048B100212046FFF7AAFC0028F4D0002D28
:10337000F2D02F60F0E7606A0028EDD004F124005D
:1033800000F0EFFF0028E7D0002DE5D02F60E3E745
:10339000002086F3118890E42DE9F0470446894621
:1033A0009046002C07D14FF4B462AFF26841AFF2FF
:1033B000584002F03FFBB9F1000F09D1206C38B141
:1033C00040F2A152AFF28441AFF2744002F032FBFE
:1033D00001F001FF5020EFF3118780F31188BFF354
:1033E0004F8FBFF36F8FA66BF6B194F944504946E7
:1033F0002046FFF7F4FD761EA663681C04D06D1C02
:1034000084F84450012010E020690028FAD004F12B
:10341000100000F0A6FF0028F4D0B8F1000FF1D0A2
:103420000120C8F80000EDE7002087F3118837E598
:103430002DE9F04104460F46002C07D140F2FC5222
:10344000AFF20051AFF2F04002F0F4FA4FB9206C45
:1034500038B140F2FD52AFF21451AFF2045002F015
:10346000E9FA206C38B940F2FE52AFF22851AFF2BF
:10347000185002F0DFFA01F0AEFE5020EFF3118594
:1034800080F31188BFF34F8FBFF36F8FA06B38B1FC
:10349000E66839462046FFF7A2FDE660012000E01D
:1034A000002085F3118808E410B50446002C07D1EC
:1034B00040F22F62AFF27451AFF2645002F0BAFAE8
:1034C00001F048FEA46B01F05FFE204610BD10B570
:1034D0000446002C07D140F24162AFF29851AFF29E
:1034E000885002F0A7FA01F035FED4E90E10441A14
:1034F00001F04AFE204610BD10B50446002C07D14D
:1035000040F25162AFF2C451AFF2B45002F092FAFD
:10351000A06B10BD00216A4A02EBC1035B688342C5
:1035200006D1002042F8310002EBC101486070472B
:10353000491C0829F0D3704710B50446002C07D168
:1035400040F25D62AFF20461AFF2F45002F072FA41
:103550002046FFF7DFFF2046BDE8104001F03CBFEA
:10356000C06C7047C164704790F85000704710B548
:103570000446002C07D140F29372AFF23861AFF2EB
:10358000286002F057FAA06B08B1002010BD01209E
:1035900010BD10B50446002C07D140F2BA72AFF24C
:1035A0005C61AFF24C6002F045FAA06BE16B8842BF
:1035B00001D1012010BD002010BD10B50022404BEC
:1035C00053F832401CB1521C082AF9D310BD43F8FD
:1035D000321003EBC201486010BD10B50024002179
:1035E000374A02EBC1035B68834202D152F8314093
:1035F00002E0491C0829F4D3204610BD70B50446EA
:103600000D46164601F0A6FD94F944304FF0000037
:103610005B1C01D184F8440094F94510491C01D188
:1036200084F8450001F0B0FDA06B28B93246294668
:1036300004F1240000F078FE2046BDE87040FFF75A
:1036400075BB00220421FFF7E3BA70B504460D46AE
:1036500001F080FDA06C08B1002405E0A06B08B16A
:10366000002401E0A564012401F08EFD204670BD18
:1036700010B50446A06C884201D0002010BDA06B9C
:1036800008B1002010BD01F065FD0020A06401F02C
:103690007BFD012010BD08B5002300930A46694652
:1036A000FFF7B1FC009808BD08B500210091002289
:1036B0006946FFF771FE009808BD000004ED00E0C8
:1036C000E855012070B50024FE4D04EB840005EBA5
:1036D0008000FFF705FA641C202CF6D3FA48FFF7A8
:1036E000FFF9F9481430FFF7FBF9F7482830FFF7E6
:1036F000F7F9F5483C30FFF7F3F9F3485030FFF79E
:10370000EFF9F248F04941631431816370BD70B53F
:10371000044601F01FFDED4DA868401CA860286814
:1037200010B1686938B10CE02C60A868012808D194
:10373000FFF7C8FF05E02868E16AC06A884200D840
:103740002C60686A401C6862A064E06A01212A69F2
:10375000814011432961DB4900EB800001EB8000CF
:10376000211DFFF7CBF901F00FFD686900280CD08F
:103770002868E16AC06A884207D2D5494FF0805074
:103780000860BFF34F8FBFF36F8F70BD2DE9F04717
:103790008146DDE908580A9C0E4617469A46B9004C
:1037A000A522206B01F084FE206B7F1E00EB8700BA
:1037B00020F00707780705D040F22B32C5A1CAA038
:1037C00002F038F900202218315C82F83410315CA4
:1037D00011B1401C1428F6D3002684F84760202D30
:1037E00000D31F25E56225656665201DFFF783F977
:1037F00004F11800FFF77FF92461C5F12000A061F2
:103800006462A66584F85C6052464946384601F019
:1038100019FC2060B8F1000F01D0C8F80040BDE8E5
:10382000F0872DE9FF5F8146DDE90E788A4616466E
:103830009B46B00001F069FD054628000AD06020D3
:1038400001F063FD04460CB1256304E0284601F055
:10385000C3FD00E000248CB10020CDE90240CDE999
:1038600000785B46324651464846FFF78FFF2046B8
:10387000FFF74DFF012004B0BDE8F09F4FF0FF308F
:10388000F9E79248416B0968002905D0416BC96886
:10389000C9684968816270474FF0FF3181627047A3
:1038A00010B50446206B01F097FD2046BDE810409E
:1038B00001F092BD70B5044601F04CFC834D04B993
:1038C0002C68201DFFF73EF958B9E06A7D4A00EBED
:1038D000800152F8211021B90121814028698843D3
:1038E0002861A06A18B104F11800FFF72BF9686A83
:1038F000401C68622868844208D17348211D3C300E
:10390000FFF7FCF86868401C686007E0A868401E84
:10391000A8602046FFF7C4FFFFF7B3FF01F034FCB7
:103920006869002812D0286884420FD1286B28B11A
:1039300040F2654267A16CA002F07CF864494FF048
:1039400080500860BFF34F8FBFF36F8F70BD2DE9BC
:10395000F04100265D4F386B002808D0B869401C44
:10396000B861F86900B101263046BDE8F081FD6814
:103970006D1CFD608DB9786B006828B140F6D912D6
:1039800054A159A002F056F8786BB96B7963B8630B
:10399000386A401C3862FFF774FFB86ADFF8248188
:1039A00085420DD3786B006838B1786BC068C46805
:1039B000606885420ED2B86202E04FF0FF30B86214
:1039C0003868C06A00EB800058F820000128C8D988
:1039D0000126C6E7201DFFF7B5F8A06A18B104F16B
:1039E0001800FFF7AFF8E06A01213A6981401143FE
:1039F000396100EB800008EB8000211DFFF77EF8A5
:103A0000E06A3968C96A8842CCD30126CAE72DE941
:103A1000F041002400272D4D286B002805D14FF4DC
:103A2000FD622CA130A002F005F801F093FB286B99
:103A3000401E2863286BE8BBA868D8B3DFF88880ED
:103A4000012608F128081DE0D8F80C00C46804F12C
:103A50001800FFF777F8201DFFF774F8E06A2A696D
:103A600006FA00F111432961164900EB800001EBD1
:103A70008000211DFFF742F8E06A2968C96A884280
:103A800000D3EE61D8F800000028DDD10CB1FFF7BB
:103A9000F8FEAC6944B1FFF75AFF00B1EE61641E55
:103AA000002CF8D10020A861E86918B10127380777
:103AB000074900E004E00860BFF34F8FBFF36F8F4A
:103AC0001AE0000028560120A8580120AC00002070
:103AD00004ED00E02E2E5C4672656552544F535C37
:103AE0007461736B732E63004572726F723A257343
:103AF0002C25640D0A00000001F046FB384634E72F
:103B00002DE9F04104460F46FE4EF5683068001D71
:103B1000FFF718F838B9306890F82C100120884069
:103B2000316981433161601C07D137B13168BDE82B
:103B3000F041091DF448FEF7E1BF2C4430684460B1
:103B4000AC4206D23168B06B091DBDE8F041FEF70A
:103B5000E1BF3168706B091DFEF7DCFFB06A84427B
:103B600000D2B46201E7E748016B491C016370476A
:103B70002DE9F04105460E460024002D07D140F204
:103B80007942AFF2B001AFF2A00001F053FF3EB9AD
:103B900040F27A42AFF2C401AFF2B40001F04AFF42
:103BA000D84F386B38B140F27B42AFF2D801AFF258
:103BB000C80001F03FFFFFF7D6FFFA682B6899199C
:103BC000934205D98B4208D9914206D9012404E0D9
:103BD0008B4201D8914200D9012429601CB1881A76
:103BE0000021FFF78DFFFFF712FF002807D1C7491B
:103BF0004FF080500860BFF34F8FBFF36F8FB4E674
:103C000010B504460020002C12D0BE48006B38B11D
:103C100040F2CF42AFF24411AFF2341001F00AFF8C
:103C2000FFF7A1FF00212046FFF76AFFFFF7EFFE35
:103C3000002807D1B5494FF080500860BFF34F8F7F
:103C4000BFF36F8F10BD70B50546002D07D140F250
:103C5000FB42AFF28011AFF2701001F0EBFEA94E03
:103C60003068854201D1002070BD01F073FA6C69A3
:103C700001F08AFA706B844202D0B06B844201D1A9
:103C8000022070BDA048844205D1A86A08B1022074
:103C900070BD032070BD9C481438844202D00CB122
:103CA000012070BD042070BD10B5044601F052FA29
:103CB0000CB994480468E46A01F066FA204610BD25
:103CC00010B5044601F087FA5020EFF3118180F31C
:103CD0001188BFF34F8FBFF36F8F0CB98948046809
:103CE000E06A81F3118810BD2DE9F04104460D46CC
:103CF0000026202D07D34FF4B062AFF22821AFF297
:103D0000182001F097FE202D00D31F2501F022FA84
:103D10007C4F04B93C68206DA84241D0854208D947
:103D200039688C4209D03968C96AA94205D8012688
:103D300003E039688C4200D10126D4F82C8040453C
:103D400000D1E5622565A069002802DBC5F12000ED
:103D5000A0616F4D08EB8801606905EB8101884225
:103D600015D1201DFEF7EEFE012120B93A6901FAB6
:103D700008F082433A61E06A3A698140114339614F
:103D800000EB800005EB8000211DFEF7B7FE3EB181
:103D90005E494FF080500860BFF34F8FBFF36F8FC5
:103DA000BDE8F04101F0F0B970B5564D286B002820
:103DB00002D00120E86170BD0020E8612869B0FAF6
:103DC00080F0C0F11F00524E00EB800456F8240032
:103DD00038B940F6F622AFF20431AFF2F42001F028
:103DE00029FE06EB840041684968416000F1080241
:103DF000914201D1496841604068C068286070BD47
:103E000070B5044601F0A6F93E4D04B92C68201D9A
:103E1000FEF798FE58B9E06A3D4A00EB800152F87F
:103E2000211021B901218140286988432861A06AB5
:103E300018B104F11800FEF785FE211D3248FEF787
:103E40005DFE01F0A1F9686928B101F083F9FFF77F
:103E500018FD01F099F92868844213D1686990B17E
:103E6000286B38B140F25762AFF29831AFF2883028
:103E700001F0E0FD25494FF080500860BFF34F8FFF
:103E8000BFF36F8F70BD2048A9680068884202D1D7
:103E90000020286070BDBDE8704085E770B5002542
:103EA0000446002807D140F28162AFF2D831AFF268
:103EB000C83001F0BFFD14496069884205D1A06A8D
:103EC0002839884201D000B90125284670BD70B557
:103ED0000446002807D140F2AB62AFF20841AFF2CE
:103EE000F83001F0A7FD002C35D0064D286884423B
:103EF00031D001F02FF92046FFF7D0FF38B3201D55
:103F000008E00000AC000020F858012004ED00E0BB
:103F100028560120FEF716FEE06A01212A69814039
:103F200011432961F94900EB800001EB8000211D5C
:103F3000FEF7E4FDE06A2968C96A884207D3F449BC
:103F40004FF080500860BFF34F8FBFF36F8FBDE815
:103F5000704001F019B970BD2DE9F041002604460A
:103F6000002807D140F2E262AFF29841AFF28840F8
:103F700001F060FD01F02FF95020EFF3118580F37F
:103F80001188BFF34F8FBFF36F8F2046FFF786FF77
:103F900038B1E04F386B40B104F11801DE48FEF74C
:103FA000ADFD85F311883046DFE4E06A3968C96AFF
:103FB000884200D30126201DFEF7C4FDE06A0121DE
:103FC0003A69814011433961D04900EB800001EB2F
:103FD0008000211DFEF792FDE3E770B5CE4ECD4D7A
:103FE00014361CE0FFF7BFFD306820B10024FFF756
:103FF0000EFDA4B901E00124F9E701F0ABF8F06887
:10400000C468201DFEF79EFDA868401EA860686871
:10401000401E686001F0B8F82046FFF741FC686870
:104020000028DFD170BDB94E4FF08054B84DFFF776
:10403000D4FF30680128FAD92C60BFF34F8FBFF34B
:104040006F8FF4E71CB5B34800242C30CDE9004055
:1040500023468222B1A1B348FFF7E3FB012801D137
:1040600000F0BBFE01280CD0401C1ED140F284722F
:10407000AFF2A051AFF2905002B0BDE8104001F095
:10408000D9BC502080F31188BFF34F8FBFF36F8FDF
:10409000A0484FF0FF31816201214161C460FCF70B
:1040A000FEFABDE81C4000F0E9BF1CBD502080F3C3
:1040B0001188BFF34F8FBFF36F8F9649002048617F
:1040C00001F03CB89348C068704710B501F083F820
:1040D0009048C06810BD8F488068704710B50028B0
:1040E00002D004461CB10AE08A480468FAE740F6A8
:1040F0008C02AFF22061AFF2106001F09BFC04F182
:10410000340010BD002101E0401C491C0278A52AA2
:10411000FAD0880880B270472DE9F04707460C4670
:1041200090461E46002F0ED03D46256005F1340016
:104130006060E86A2061286BE061A86CA060207B69
:10414000032803D00AE073480568EEE7FFF70BFD8C
:10415000A86A08B102202073FFF759FC286D60613E
:104160004FF00009C4F81890052E01D0267303E023
:104170003846FFF768FD2073B8F1000F05D0286BB3
:10418000FFF7C0FF2084BDE8F087A4F82090FAE78D
:104190002DE9F04780460C4691460026206800280D
:1041A00021D0214648684068486001F10807B842BC
:1041B00001D1406848604868D0F80CA06068456844
:1041C0006560BD4201D1696861606068C56806EBE1
:1041D000C60008EB80014B4601222846FFF79CFFF2
:1041E000761C5545EAD13046CDE72DE9F047064625
:1041F0000B46174600242025FFF7B5FCDFF8148195
:10420000D8F8080083423BD3DFF800916D1E05EB20
:10421000850009EB800104EBC40006EB800001225D
:10422000FFF7B6FF0444002DF0D104EBC40006EB09
:1042300080000222D8F83410FFF7AAFF044404EBF0
:10424000C40006EB80000222D8F83810FFF7A0FF68
:104250000444314904EBC40006EB8000042214310D
:10426000FFF796FF04442C4904EBC40006EB8000E2
:1042700003222831FFF78CFF04440FB1002038607F
:10428000FFF7C5FB20467EE770B504460D46002CBF
:1042900007D140F60632AFF2C471AFF2B47001F04C
:1042A000C9FB1C48016820461831FEF733FC28463C
:1042B000BDE87040012123E42DE9F04105460E469A
:1042C0001746002D07D140F61732AFF2F871AFF262
:1042D000E87001F0AFFB0F4C206B38B940F61B3291
:1042E000AFF61001AFF6000001F0A4FB216846F024
:1042F00000408861216828461831FEF7FFFB3846E8
:10430000BDE8F0410121FFF7FBBB0000285601206A
:1043100004ED00E0AC000020D058012049444C4599
:10432000000000002740000870B506460D46144600
:10433000002E07D140F63132AFF66801AFF65800D3
:1043400001F078FBFE48016830461831FEF7D6FBD5
:104350000CB14FF0FF3521462846BDE87040FFF70D
:10436000CFBB2DE9F041C068C468002C07D140F6EE
:104370006132AFF6A001AFF6900001F05BFB04F1F3
:1043800018000746FEF7DEFBED4D2A6B01265AB1F9
:104390003946EC48FEF7B2FBE06A2968C96A8842F0
:1043A00014D90120EE612AE4201DFEF7CBFBE06A60
:1043B0002A6906FA00F111432961E34900EB800004
:1043C00001EB8000211DFEF799FBE5E7002016E4D4
:1043D00070B506460C46DA4D286B002807D140F62A
:1043E0009932AFF61011AFF6001001F023FB44F044
:1043F00000403060F4683CB940F6A132AFF62C11B1
:10440000AFF61C1001F016FB3046FEF79BFB201D9B
:10441000FEF798FBE06A01262A6906FA00F11143CB
:104420002961C94900EB800001EB8000211DFEF7E6
:1044300065FBE06A2968C96A884202D90120EE61F9
:1044400070BD002070BD10B50446002C07D140F6A9
:10445000C132AFF68011AFF6701001F0EBFAB84838
:10446000016A2160C068606010BD70B504460D46E9
:10447000002C07D140F6CB32AFF6A811AFF698105A
:1044800001F0D8FA3DB940F6CC32AFF6B811AFF62C
:10449000A81001F0CFFA00F05DFEA94AD0682968A3
:1044A0004B1C08D02368126A934206D0626882428D
:1044B00003D801240DE000240BE06268801A8842D2
:1044C00006D2081A28602046FFF7BDFF002400E04E
:1044D000012400F059FE204670BD99490120C861B1
:1044E0007047002801D0C06C70470020704700283A
:1044F00000D0C16470479248006870479048416995
:10450000002903D0006B18B10020704701207047CC
:104510000220704770B50446002839D0884DE06A03
:104520002968C96A884233D2A069002804DB286858
:10453000C06AC0F12000A061E06A834E00EB8000F9
:10454000616906EB800081421FD1201DFEF7FAFA57
:10455000012150B9E06A00EB800256F8222022B90E
:104560002A6901FA00F082432A612868C06AE06281
:104570002A6981401143296100EB800006EB80002D
:10458000211DBDE87040FEF7B9BA2868C06AE06234
:1045900070BD70B504460026002840D0684D2868DC
:1045A000844207D040F6C762AFF6D821AFF6C820E4
:1045B00001F040FA606D38B940F6C962AFF6EC21FF
:1045C000AFF6DC2001F036FA606D401E6065226DAA
:1045D000E16A914223D010BB201DFEF7B3FA5A4A7C
:1045E000012150B9E06A00EB800352F8233023B96F
:1045F0002B6901FA00F083432B61206DE062C0F16A
:104600002000A061E06A2B6981401943296100EB19
:10461000800002EB8000211DFEF770FA0126304673
:1046200070BD10B50446204600F05BFF204600F048
:1046300051FF202101E02154401C1328FBD300210D
:104640002154204410BD7FB50646002434703C48F8
:1046500081680391806800EBC000800000F055FE87
:104660000546280042D000220399FFF7BEFD0390C3
:10467000029429E0029800EBC00005EB8000017B6A
:1046800001292BD002292BD003292BD004292BD090
:10469000002441683046FFF7C4FF0646029800EB4D
:1046A000C00005EB80008168028CCDE90021036920
:1046B000224626A1304601F0CDF9304600F00AFF2F
:1046C00006440298401C0290DDE902018842D1D3E1
:1046D00004B02846BDE8704000F07EBE5224D8E702
:1046E0004224D6E75324D4E74424D2E77FBD1449BB
:1046F000086880690A680968D26AC2F120028A6182
:1047000070470F490868002803D00868426D521CA2
:1047100042650868704770B506460C4600F01AFD01
:10472000074D2868806DF8B92A68012082F85C007E
:10473000D4B101212046FFF7E3F94FF080500DE09E
:10474000AC000020D058012028560120092563091B
:1047500025750925750925750D0A0000D2490860DF
:10476000BFF34F8FBFF36F8F00F00EFD00F0F2FC30
:104770002868846D002034B116B12968886502E08C
:104780002A68611E9165296881F85C0000F0FCFCD4
:10479000204670BD2DE9F04781460F4616469846E3
:1047A00000F0D8FCC14D286890F85C00022817D0B2
:1047B0002C68A06D20EA0900A0652968012081F815
:1047C0005C00B8F1000F0BD001214046FFF798F9CB
:1047D000B5494FF080500860BFF34F8FBFF36F8F24
:1047E00000F0D2FC00F0B6FC16B12868806D306095
:1047F000286890F85C0001280CD02868816DB943C6
:10480000816501242968002081F85C0000F0BCFC6F
:104810002046B8E40024F5E72DE9F04104460D46B2
:1048200090461F460126002C07D141F2FD02AFF64B
:104830005C51AFF64C5001F0FDF800F08BFC0FB16D
:10484000A06D386094F85C00022184F85C10B8F127
:10485000050F13D2DFE808F01203070B0D00A16D5E
:104860002943A1650AE0A16D491CA16506E0A56583
:1048700004E0022801D0A56500E00026012828D127
:10488000201DFEF75FF9894DE06A01212A69814008
:1048900011432961864900EB800001EB8000211D56
:1048A000FEF72CF9A06A38B141F23512AFF6DC51AF
:1048B000AFF6CC5001F0BEF8E06A2968C96A8842B8
:1048C00007D979494FF080500860BFF34F8FBFF38D
:1048D0006F8F00F059FC304665E52DE9F04704463E
:1048E000DDF820800D4691469A460127002C07D11D
:1048F00041F26812AFF62461AFF6146001F09AF845
:1049000000F069FC5020EFF3118680F31188BFF3AB
:104910004F8FBFF36F8FBAF1000F02D0A06DCAF8AE
:10492000000094F85C00022184F85C10B9F1050FD6
:1049300013D2DFE809F01203070B0D00A16D294324
:10494000A1650AE0A16D491CA16506E0A56504E02A
:10495000022801D0A56500E00027012832D1A06A15
:1049600038B141F2AF12AFF69461AFF6846001F056
:1049700061F84E4D286B4FF0010978B104F1180130
:104980004C48FEF7BBF8E06A2968C96A884219D921
:10499000B8F1000F14D0C8F8009013E0201DFEF706
:1049A000D1F8E06A2A6909FA00F11143296100EBA4
:1049B00080013F4800EB8100211DFEF79FF8E2E7F0
:1049C000C5F81C9086F3118838460DE42DE9F041B6
:1049D00004468846002C07D141F2E312AFF60C7171
:1049E000AFF6FC6001F026F800F0F5FB5020EFF385
:1049F000118780F31188BFF34F8FBFF36F8F94F847
:104A00005C00022184F85C10A16D491CA16501289D
:104A100030D1A06A38B141F20922AFF64871AFF641
:104A2000387001F007F8214D286B012678B104F1A8
:104A300018012048FEF762F8E06A2968C96A8842CE
:104A400018D9B8F1000F14D0C8F8006012E0201D8A
:104A5000FEF778F8E06A2A6906FA00F11143296145
:104A6000134900EB800001EB8000211DFEF746F8A2
:104A7000E2E7EE6187F3118895E410B500280BD0CA
:104A8000044600F067FB94F85C00022807D000247D
:104A900000F07AFB204610BD04480468F1E70020CE
:104AA00084F85C000124F3E704ED00E0AC00002092
:104AB00028560120D058012070B5002441600061C3
:104AC000F74D91420AD8D11A8269914201D301244B
:104AD0000EE0011D2869FEF71DF809E09A4203D295
:104AE000994201D3012403E0011DE868FEF712F8A2
:104AF000204670BD2DE9FF470546DDF830A00E4683
:104B0000904699460027002D05D14FF4D372E5A1B8
:104B1000EAA000F08FFFE24C2068F8B10096CDF8D3
:104B200004800295062E13DAFFF7E8FC022807D06E
:104B300000231A4669462068FEF746F907460DE04D
:104B40000023524669462068FEF73EF9074605E015
:104B500000234A466946FEF75AFB074604B038462A
:104B6000BDE8F087F8B5CE4E25E0C0680568C4689A
:104B7000201DFDF7E7FF616A20468847E0690128AC
:104B800019D1A0692844A84206D960602461211D7A
:104B9000F068FDF7BFFF0EE00020034601460090DD
:104BA0002A462046FFF7A6FF28B940F29232BDA15F
:104BB000C2A000F03FFFF06801680029D5D1F0687D
:104BC0003169F1603061F8BD70B50546FFF77AFADA
:104BD0000446B34EB068844204D2FFF7C3FF0120FD
:104BE000286001E000202860B460204670BD70B5E8
:104BF00086B0AB4E53E00298002803DADDE90320CB
:104C0000059990470298002849DB049C606910B11F
:104C1000201DFDF797FF01A8FFF7D6FF0546029874
:104C20000A283CD2DFE800F00505053B27380505DA
:104C30003B270398A169034601442A462046FFF713
:104C40003BFF00282BD0616A20468847E069012895
:104C500025D1002000900398A1690023421819462D
:104C60002046FFF747FFD0B940F221328DA193A033
:104C700000F0E0FE13E00398A06128B94FF44E72F3
:104C800088A18EA000F0D6FEA0692B4641192A46C5
:104C90002046FFF711FF02E0204600F09DFB0023B5
:104CA0001A4602A93068FEF7AEF90028A3D106B073
:104CB00070BDF8B505460E467948C068C068C4683E
:104CC000201DFDF73FFFE069012816D1A0692B46A2
:104CD000411932462046FFF7EFFE70B1002003462F
:104CE000014600902A462046FFF704FF28B94FF4FA
:104CF00002726CA171A000F09DFE616A01B02046B5
:104D0000BDE8F0400847F8B506460D46FEF72BFF14
:104D10006846FFF759FF0446009810B1FEF777FE8A
:104D2000F8BD45B9A64206D8FEF771FE21463046C9
:104D3000FFF7BFFFF8BD5A481DB10169096891B17D
:104D40000025311B2A460068FEF758FCFEF75FFE7F
:104D50000028EFD15D494FF080500860BFF34F8FBE
:104D6000BFF36F8FF8BD0125EBE74D49CA681168A5
:104D7000002904D00021016019B1002070470121F1
:104D8000F9E7D0680068704708B56846FFF7EDFF9F
:104D90000099FFF7B8FFFFF72AFFF6E710B500F01C
:104DA000D9F93F4C2068A0B94948FDF799FE484819
:104DB0001430FDF795FE4648E06014302061002273
:104DC00010210520FDF724FF206010B141A1FEF75E
:104DD000F4FBBDE8104000F0D7B91CB50024FFF784
:104DE000DDFF2F48006860B12D481F21001DCDE96F
:104DF000001000234FF4827238A13A48FEF711FDEB
:104E000004462CB940F2331226A12CA000F012FE69
:104E100020461CBD2DE9F0470646DDE908940D4605
:104E200017469846002D05D14FF4C6721DA123A048
:104E300000F000FE002C0DD0FFF7B0FF2660A5614A
:104E4000E761C4F82080C4F82490201DBDE8F04735
:104E5000FDF751BE84E62DE9FC4706460A9D0F4644
:104E6000904699462C2000F050FA04463CB1CDE91A
:104E700000544B46424639463046FFF7CBFF2046AA
:104E8000BDE8FC8710B5064C6068002805D14FF4DA
:104E9000E87204A109A000F0CDFD606810BD00001B
:104EA000E80000202E2E5C4672656552544F535C1C
:104EB00074696D6572732E63000000004572726F35
:104EC000723A25732C25640D0A00000004ED00E001
:104ED0000C590120546D725100000000546D722075
:104EE00053766300894D000810B50446002807D1A9
:104EF00040F2D912AFF25401AFF2400000F09AFD37
:104F0000A069CBE710B50446002807D140F2E312B0
:104F1000AFF27001AFF25C0000F08CFD6068BDE79D
:104F200010B50446002807D140F2ED12AFF28C0113
:104F3000AFF2780000F07EFD2068AFE710B50446C0
:104F4000002807D140F2DA32AFF2A801AFF29400A4
:104F500000F070FD00F0FEF8606908B1012400E087
:104F6000002400F011F9204698E710B50446002807
:104F700007D140F2EF32AFF2D401AFF2C00000F03F
:104F800059FD00F0E7F8246A00F0FEF8204685E7B6
:104F900070B50D460446002807D140F2FF32AFF24B
:104FA000FC01AFF2E80000F045FD00F0D3F8256207
:104FB000BDE8704000F0E8B87FB51D466FF0010411
:104FC0000094019002910392144800232A466946F6
:104FD0000068FEF71CF904B070BD2DE9FF410446DE
:104FE0000D46164698460D4F3A68002A07D140F202
:104FF0002B42AFF25011AFF23C1000F01BFD4FF00E
:10500000FF320092019402950396002342466946BE
:105010003868FDF7D9FE04B0BDE8F081E800002053
:105020007F484068401C05D040F20F127DA188A047
:1050300000F000FD502080F31188BFF34F8FBFF3C5
:105040006F8FFEE724384FF08073036221F0010177
:10505000C1618349816142606FF0020140F820190B
:10506000704780484FF47A710068B0FBF1F14FF05F
:10507000E020491E41610721016170471CB57A4C4F
:1050800020687A49884205D140F2591265A170A082
:1050900000F0D0FC20687549491E884205D14FF4C4
:1050A000AD7260A16AA000F0C5FC714C207801903F
:1050B000FF202070207800909DF800009DF80010DF
:1050C00000F0F000884205D040F2731255A160A0B4
:1050D00000F0B0FC9DF80000514A00F05000107044
:1050E0000720906006E09068401E90609DF80000E8
:1050F000400000909DF800000006F4D4107A0002F1
:1051000000F4E060906001982070574820300168FA
:1051100041F470010160016841F070410160FFF7E6
:10512000A0FF00205060FBF75BF85248016841F097
:1051300040410160FBF744F800201CBD384840683E
:10514000B0F57A7F05D040F2A91236A140A000F058
:1051500071BC7047502080F31188BFF34F8FBFF3AD
:105160006F8F2F494868401C486001280BD13E488A
:10517000001D006810F0FF0F05D040F2B91229A100
:1051800033A000F057BC704710B5254C606800286C
:1051900005D14FF4E07223A12DA000F04BFC606814
:1051A000401E6060002801D180F3118810BD10B549
:1051B000502080F31188BFF34F8FBFF36F8FFEF73E
:1051C000C6FB20B128494FF08050091D086000201F
:1051D00080F3118810BD10B5FBF73AF8104C102879
:1051E0000CD300F1E02090F8F0032178884205D23A
:1051F0004FF440720BA116A000F01CFC1A480C30B2
:105200000068A16800F4E060884207D9BDE810405A
:105210004FF4447203A10EA000F00CBC10BD0000BE
:10522000FC0000202E2E5C4672656552544F535C84
:10523000706F727461626C655C525644535C41528B
:105240004D5F434D34465C706F72742E63000000F6
:105250004572726F723A25732C25640D0A000000A6
:10526000215000082400002000ED00E071C20F4131
:1052700000E400E034EF00E030B5744900E011468E
:105280000A688242FBD34B685C18844203D14068B1
:105290001844486008460D6844682318AB420DD195
:1052A0006A4B103B1B689A4206D052682244426007
:1052B0000A681268026002E0036000E00260814256
:1052C00000D0086030BD4FF4A0416148420706D0CD
:1052D000C01D20F007005E49411AC1F5A0415B4A9C
:1052E0001060002353600144083921F00701103A8F
:1052F00011604B600B600B1A436001604068906066
:1053000050604FF00040D06070472DE9F0410546F5
:105310000026FEF728FC4D4F103F386808B9FFF70C
:10532000D2FFF86805424AD175B1083568070BD03D
:1053300005F00700C0F108000544680704D0BF224B
:1053400044A14EA000F076FB002D38D0786885424D
:1053500035D83E490846046801E0214604466068A5
:10536000A84202D220680028F7D13868844226D0AB
:105370000E680836206808606068401B102811D944
:1053800004EB05085FEA487004D0EC2231A13BA091
:1053900000F050FB6068401BC8F8040065604046A0
:1053A000FFF76AFF61687868401A7860BA689042CF
:1053B00000D2B860F8680143616000202060FEF709
:1053C00026FB700705D04FF4967222A12BA000F0A7
:1053D00031FB3046BDE8F08170B500282BD008388D
:1053E00004461A4D6068103DE968084205D14FF443
:1053F000A07218A121A000F01DFB206828B140F286
:10540000411214A11DA000F015FB6068E968084274
:1054100011D02268002A0ED188436060FEF7A3FBFA
:1054200060686968084468602046FFF725FFBDE8AA
:105430007040FEF7ECBA70BD044810384068704701
:10544000024810388068704770470000180100203B
:10545000345901202E2E5C4672656552544F535CC0
:10546000706F727461626C655C4D656D4D616E67E5
:105470005C686561705F342E630000004572726F76
:10548000723A25732C25640D0A00000040EA0103DE
:105490009B0703D009E008C9121F08C0042AFAD2EA
:1054A00003E011F8013B00F8013B521EF9D27047AE
:1054B000D2B201E000F8012B491EFBD27047002256
:1054C000F6E710B513460A4604461946FFF7F0FF03
:1054D000204610BD421C10F8011B0029FBD1801A88
:1054E0007047034611F8012B00F8012B002AF9D16F
:1054F0001846704730B50B46014600202022012493
:1055000009E021FA02F59D4205D303FA02F5491B91
:1055100004FA02F52844151EA2F10102F1DC30BDA7
:105520002DE9F05F0546002092469B4688460646D8
:10553000814640241BE0284641464746224600F06B
:10554000FAF953465A46C01A914110D311461846EB
:10555000224600F0E1F92D1A67EB01084F4622467A
:105560000120002100F0D8F917EB00094E41201E60
:10557000A4F10104DFDC484631462A464346BDE833
:10558000F09F2DE9FE4F804681EA0300C00F0C46D4
:10559000009021F0004123F00045B8EB0200A94142
:1055A00005D24046214690461C460B46024623F053
:1055B0000040104347D0270DC7F30A00C3F30A5138
:1055C0000290401A019040286BDAC3F3130040F4B4
:1055D000801B0098924620B10023D2EB030A63EBB4
:1055E0000B0B01985946C0F14002504600F094F967
:1055F00006460D4650465946019A00F0ACF910EBAC
:1056000008006141002487EA115284EAE7731A43D3
:1056100040D0009A62B3019A012A4FEA075215DC82
:10562000001B61EB02014FF0004202EA0752CDE994
:105630000042001C41F5801132462B4600F0ACF9C7
:1056400003B0BDE8F08F40462146F9E7001B61EB4F
:105650000201001C41F5801300185B412018A2F5DF
:10566000001747EB030140EAD570B6196D4111E010
:105670006D084FEA360645EAC0754FEA0752001B2F
:1056800061EB0201001C41F5801149084FEA30002E
:105690000019514132462B4603B0BDE8F04F00F0EF
:1056A0006CB90098012240000023D0EB020263EBAA
:1056B000E073009821464FEAE074B8EB000061EB1C
:1056C0000401E9E783F000435BE781F0004158E71C
:1056D0002DE9FE4F81EA030404F0004421F000416B
:1056E00000944FF0000B23F0004350EA01045ED019
:1056F00052EA03045BD0C3F30A54C1F30A552C44A5
:10570000A4F2F3340194A0FB0254C1F3130141F459
:105710008011C3F3130343F4801301FB024400FB25
:10572000034E840A970A44EA815447EA8357A4FB4C
:10573000076802958D0A05FB07854FEA932C04FB49
:105740000C542705029D4FEA065847EA1637B5EB79
:1057500008056EEB070C870E920E47EA811742EAA6
:105760008312A7FB0201B6EB0B0164EB00042B0DC7
:1057700043EA0C335E1844EB1C50DA465146E7FB13
:105780000201C5F313044FEA0B3343EA14534FEA03
:105790000432019C43EA0603A4F10C040294009C29
:1057A000CDE900B400F0F8F803B0BDE8F08F0020B8
:1057B0000146F9E72DE9F04D81EA030404F0004BBE
:1057C00021F0004514464FF0000A23F0004150EA52
:1057D000050220D054EA01021DD0C5F30A57024643
:1057E000C5F31303C1F31300C1F30A5640F4801547
:1057F00043F48013A7EB0608101BD64608F2FD38C9
:1058000073EB050002D308F1010801E092185B4137
:10581000B8F1000F03DA00200146BDE8F08D00204A
:105820004FF48011064684460EE0171B73EB050704
:1058300005D3121B63EB050306434CEA010C490830
:105840004FEA300092185B4150EA0107EDD152EA6D
:10585000030012D082EA040083EA0501084305D060
:10586000101BAB4106D20122002306E000224FF0BC
:10587000004302E06FF0010253101AEB06004CEBFC
:10588000085110EB0A0041EB0B01BDE8F04D00F0B0
:1058900074B8C1F30A52C1F3130140F2FF3341F46B
:1058A00080119A4202DA00200146704740F23343E9
:1058B0009A42A2F2334202DC524200F03CB800F0BD
:1058C0002BB8000030B5041E71F1000404DB4FF06A
:1058D0000044404264EB0101141E73F1000405DB37
:1058E0001C464FF00043524263EB0403994208BF49
:1058F000904230BD064C074D06E0E06840F00103E1
:1059000094E8070098471034AC42F6D3FAF740FC0D
:105910007465000894650008202A04DB203A00FA28
:1059200002F1002070479140C2F1200320FA03F3F6
:10593000194390407047202A04DB203A21FA02F0F4
:105940000021704721FA02F3D040C2F120029140B9
:10595000084319467047202A06DBCB17203A41FA44
:1059600002F043EAE07306E041FA02F3D040C2F1EC
:105970002002914008431946704710B5141E73F178
:10598000000408DA401C41F1000192185B411A43FF
:1059900001D120F0010010BD2DE9F04D92469B464B
:1059A00011B1B1FA81F202E0B0FA80F220329046F1
:1059B000FFF7B2FF04460F4640EA0A0041EA0B0136
:1059C00053465A46084313D0114653EA010019D0F2
:1059D000C8F140025046FFF7AEFF05460E4650465E
:1059E00059464246FFF798FF084305D0012004E0DE
:1059F00020463946BDE8F08D0020054346EAE076B2
:105A00002C4337430A986305E40AA0EB0800002200
:105A1000FD0A44EA47540A3002D500200146E9E76E
:105A2000010510196941DDE9084500196941BDE822
:105A3000F04DA2E70FB4054B10B503A9044A029834
:105A400000F008F910BC5DF814FB00009B0A000888
:105A5000740000200FB4084B10B504A902AA0398E3
:105A600000F0F8F8044602A9002000F05DFD204691
:105A700010BC5DF814FB0000296500087CB50C0023
:105A80001D461646014601D0601E00E00020CDE90B
:105A90000010064B6A462946304600F0B7F9002C44
:105AA00002D0009A002111707CBD0000136500082F
:105AB00002E008C8121F08C1002AFAD170477047D7
:105AC000002001E001C1121F002AFBD17047000035
:105AD0002DE9FF5F82B00021DDE90430020DDDF821
